{
	"data": {
		"bytecode": {
			"linkReferences": {},
			"object": "60806040523480156200001157600080fd5b50604051620040e9380380620040e98339818101604052810190620000379190620000d6565b336000806101000a81548173ffffffffffffffffffffffffffffffffffffffff021916908373ffffffffffffffffffffffffffffffffffffffff16021790555080600360006101000a81548173ffffffffffffffffffffffffffffffffffffffff021916908373ffffffffffffffffffffffffffffffffffffffff160217905550506200016f565b600081519050620000d08162000155565b92915050565b600060208284031215620000ef57620000ee62000150565b5b6000620000ff84828501620000bf565b91505092915050565b6000620001158262000130565b9050919050565b6000620001298262000108565b9050919050565b600073ffffffffffffffffffffffffffffffffffffffff82169050919050565b600080fd5b62000160816200011c565b81146200016c57600080fd5b50565b613f6a806200017f6000396000f3fe6080604052600436106100f25760003560e01c80637b4802f61161008a578063b1623c0611610059578063b1623c061461032c578063d2ca8a3914610355578063dcfb57eb14610371578063f4de85841461039a576100f2565b80637b4802f61461026957806386e525e1146102a65780639fc34860146102e3578063ab3c48f1146102ff576100f2565b80633d536704116100c65780633d536704146101c357806354fd4118146101da578063574477331461021757806369344c3f14610240576100f2565b8062a7079b146100f757806312a518ee14610120578063224b1b3c1461015d578063284ef4101461019a575b600080fd5b34801561010357600080fd5b5061011e60048036038101906101199190613174565b6103d7565b005b34801561012c57600080fd5b5061014760048036038101906101429190613174565b610529565b604051610154919061383b565b60405180910390f35b34801561016957600080fd5b50610184600480360381019061017f9190613174565b610670565b604051610191919061383b565b60405180910390f35b3480156101a657600080fd5b506101c160048036038101906101bc91906131a1565b610891565b005b3480156101cf57600080fd5b506101d8610b8f565b005b3480156101e657600080fd5b5061020160048036038101906101fc9190613174565b610c70565b60405161020e919061383b565b60405180910390f35b34801561022357600080fd5b5061023e600480360381019061023991906130fc565b610d7a565b005b34801561024c57600080fd5b5061026760048036038101906102629190613174565b610f9d565b005b34801561027557600080fd5b50610290600480360381019061028b9190613174565b6116f6565b60405161029d919061383b565b60405180910390f35b3480156102b257600080fd5b506102cd60048036038101906102c89190613174565b611917565b6040516102da919061383b565b60405180910390f35b6102fd60048036038101906102f89190613174565b611a5e565b005b34801561030b57600080fd5b50610314611db4565b6040516103239392919061366d565b60405180910390f35b34801561033857600080fd5b50610353600480360381019061034e9190613174565b6120ba565b005b61036f600480360381019061036a9190613174565b612813565b005b34801561037d57600080fd5b5061039860048036038101906103939190613174565b612b69565b005b3480156103a657600080fd5b506103c160048036038101906103bc9190613174565b612dcd565b6040516103ce919061383b565b60405180910390f35b60008054906101000a900473ffffffffffffffffffffffffffffffffffffffff1673ffffffffffffffffffffffffffffffffffffffff163373ffffffffffffffffffffffffffffffffffffffff1614610465576040517f08c379a000000000000000000000000000000000000000000000000000000000815260040161045c906136db565b60405180910390fd5b806001600082815260200190815260200160002060000160009054906101000a900460ff166104c9576040517f08c379a00000000000000000000000000000000000000000000000000000000081526004016104c0906137fb565b60405180910390fd5b60006001600084815260200190815260200160002060000160006101000a81548160ff021916908315150217905550817f0c4902b3a978682a196942c5d9da0f9f46f4034f31b152138d9b2f446885690e60405160405180910390a25050565b600081600060016000838152602001908152602001600020600101805461054f90613b47565b80601f016020809104026020016040519081016040528092919081815260200182805461057b90613b47565b80156105c85780601f1061059d576101008083540402835291602001916105c8565b820191906000526020600020905b8154815290600101906020018083116105ab57829003601f168201915b505050505090506000815111610613576040517f08c379a000000000000000000000000000000000000000000000000000000000815260040161060a9061375b565b60405180910390fd5b6001600085815260200190815260200160002060070160003373ffffffffffffffffffffffffffffffffffffffff1673ffffffffffffffffffffffffffffffffffffffff1681526020019081526020016000205492505050919050565b600081600060016000838152602001908152602001600020600101805461069690613b47565b80601f01602080910402602001604051908101604052809291908181526020018280546106c290613b47565b801561070f5780601f106106e45761010080835404028352916020019161070f565b820191906000526020600020905b8154815290600101906020018083116106f257829003601f168201915b50505050509050600081511161075a576040517f08c379a00000000000000000000000000000000000000000000000000000000081526004016107519061375b565b60405180910390fd5b60006001600086815260200190815260200160002060070160003373ffffffffffffffffffffffffffffffffffffffff1673ffffffffffffffffffffffffffffffffffffffff1681526020019081526020016000205414156107bf576000925061088a565b60006001600086815260200190815260200160002060070160003373ffffffffffffffffffffffffffffffffffffffff1673ffffffffffffffffffffffffffffffffffffffff16815260200190815260200160002054905060006001600087815260200190815260200160002060050154670de0b6b3a7640000836108449190613a22565b61084e91906139f1565b9050670de0b6b3a764000060016000888152602001908152602001600020600401548261087b9190613a22565b61088591906139f1565b945050505b5050919050565b60008054906101000a900473ffffffffffffffffffffffffffffffffffffffff1673ffffffffffffffffffffffffffffffffffffffff163373ffffffffffffffffffffffffffffffffffffffff161461091f576040517f08c379a0000000000000000000000000000000000000000000000000000000008152600401610916906136db565b60405180910390fd5b82600060016000838152602001908152602001600020600101805461094390613b47565b80601f016020809104026020016040519081016040528092919081815260200182805461096f90613b47565b80156109bc5780601f10610991576101008083540402835291602001916109bc565b820191906000526020600020905b81548152906001019060200180831161099f57829003601f168201915b505050505090506000815111610a07576040517f08c379a00000000000000000000000000000000000000000000000000000000081526004016109fe9061375b565b60405180910390fd5b6001600083815260200190815260200160002060000160009054906101000a900460ff1615610a6b576040517f08c379a0000000000000000000000000000000000000000000000000000000008152600401610a629061381b565b60405180910390fd5b6001600083815260200190815260200160002060000160019054906101000a900460ff1615610acf576040517f08c379a0000000000000000000000000000000000000000000000000000000008152600401610ac69061379b565b60405180910390fd5b836001600087815260200190815260200160002060030160006101000a81548160ff021916908360ff160217905550826001600087815260200190815260200160002060030160016101000a81548160ff021916908360ff160217905550600180600087815260200190815260200160002060000160016101000a81548160ff021916908315150217905550847fb0f0d5300b9078146e1b189a7f1c94604d37c52c89fda96e9ea036b7e54d6da060405160405180910390a25050505050565b60008054906101000a900473ffffffffffffffffffffffffffffffffffffffff1673ffffffffffffffffffffffffffffffffffffffff163373ffffffffffffffffffffffffffffffffffffffff1614610c1d576040517f08c379a0000000000000000000000000000000000000000000000000000000008152600401610c14906136db565b60405180910390fd5b3373ffffffffffffffffffffffffffffffffffffffff166108fc6004549081150290604051600060405180830381858888f19350505050158015610c65573d6000803e3d6000fd5b506000600481905550565b6000816000600160008381526020019081526020016000206001018054610c9690613b47565b80601f0160208091040260200160405190810160405280929190818152602001828054610cc290613b47565b8015610d0f5780601f10610ce457610100808354040283529160200191610d0f565b820191906000526020600020905b815481529060010190602001808311610cf257829003601f168201915b505050505090506000815111610d5a576040517f08c379a0000000000000000000000000000000000000000000000000000000008152600401610d519061375b565b60405180910390fd5b600160008581526020019081526020016000206005015492505050919050565b60008054906101000a900473ffffffffffffffffffffffffffffffffffffffff1673ffffffffffffffffffffffffffffffffffffffff163373ffffffffffffffffffffffffffffffffffffffff1614610e08576040517f08c379a0000000000000000000000000000000000000000000000000000000008152600401610dff906136db565b60405180910390fd5b600082905060008290506000825111610e56576040517f08c379a0000000000000000000000000000000000000000000000000000000008152600401610e4d9061373b565b60405180910390fd5b6000815111610e9a576040517f08c379a0000000000000000000000000000000000000000000000000000000008152600401610e919061371b565b60405180910390fd5b836001600060025481526020019081526020016000206001019080519060200190610ec6929190612f7d565b50826001600060025481526020019081526020016000206002019080519060200190610ef3929190612f7d565b506001806000600254815260200190815260200160002060000160006101000a81548160ff02191690831515021790555060025483604051610f3591906135e6565b604051809103902084604051610f4b91906135e6565b60405180910390207fe834e7e53fcbac7f32b7f929a458f2a007ffd0002ef4837b2efc7c55d89befc160405160405180910390a460026000815480929190610f9290613baa565b919050555050505050565b806000600160008381526020019081526020016000206001018054610fc190613b47565b80601f0160208091040260200160405190810160405280929190818152602001828054610fed90613b47565b801561103a5780601f1061100f5761010080835404028352916020019161103a565b820191906000526020600020905b81548152906001019060200180831161101d57829003601f168201915b505050505090506000815111611085576040517f08c379a000000000000000000000000000000000000000000000000000000000815260040161107c9061375b565b60405180910390fd5b826001600082815260200190815260200160002060000160019054906101000a900460ff166110e9576040517f08c379a00000000000000000000000000000000000000000000000000000000081526004016110e0906137bb565b60405180910390fd5b60006001600083815260200190815260200160002060060160003373ffffffffffffffffffffffffffffffffffffffff1673ffffffffffffffffffffffffffffffffffffffff16815260200190815260200160002054118061119e575060006001600083815260200190815260200160002060070160003373ffffffffffffffffffffffffffffffffffffffff1673ffffffffffffffffffffffffffffffffffffffff16815260200190815260200160002054115b6111dd576040517f08c379a00000000000000000000000000000000000000000000000000000000081526004016111d4906136fb565b60405180910390fd5b6001600085815260200190815260200160002060030160019054906101000a900460ff1660ff166001600086815260200190815260200160002060030160009054906101000a900460ff1660ff161015600160008681526020019081526020016000206002016040516020016112539190613614565b604051602081830303815290604052906112a3576040517f08c379a000000000000000000000000000000000000000000000000000000000815260040161129a91906136b9565b60405180910390fd5b5060006001600086815260200190815260200160002060060160003373ffffffffffffffffffffffffffffffffffffffff1673ffffffffffffffffffffffffffffffffffffffff168152602001908152602001600020541161133a576040517f08c379a00000000000000000000000000000000000000000000000000000000081526004016113319061377b565b60405180910390fd5b60006001600086815260200190815260200160002060060160003373ffffffffffffffffffffffffffffffffffffffff1673ffffffffffffffffffffffffffffffffffffffff1681526020019081526020016000205490506001600086815260200190815260200160002060030160019054906101000a900460ff1660ff166001600087815260200190815260200160002060030160009054906101000a900460ff1660ff1611156116235760006001600087815260200190815260200160002060040154670de0b6b3a7640000836114139190613a22565b61141d91906139f1565b905060006001600088815260200190815260200160002060060160003373ffffffffffffffffffffffffffffffffffffffff1673ffffffffffffffffffffffffffffffffffffffff16815260200190815260200160002054670de0b6b3a7640000600160008a815260200190815260200160002060050154846114a09190613a22565b6114aa91906139f1565b6114b4919061399b565b905060006103e8826114c691906139f1565b905080600460008282546114da919061399b565b925050819055503373ffffffffffffffffffffffffffffffffffffffff166108fc82846115079190613a7c565b9081150290604051600060405180830381858888f19350505050158015611532573d6000803e3d6000fd5b506000600160008a815260200190815260200160002060060160003373ffffffffffffffffffffffffffffffffffffffff1673ffffffffffffffffffffffffffffffffffffffff16815260200190815260200160002081905550600160008981526020019081526020016000206001016040516115af91906135fd565b60405180910390203373ffffffffffffffffffffffffffffffffffffffff16897f332dfee3f310b4fdae7119d52dbe5c6aeb187e7256d13afa501038064413425784866115fc9190613a7c565b6116058d612ed7565b604051611613929190613856565b60405180910390a45050506116ef565b3373ffffffffffffffffffffffffffffffffffffffff166108fc829081150290604051600060405180830381858888f19350505050158015611669573d6000803e3d6000fd5b506001600086815260200190815260200160002060010160405161168d91906135fd565b60405180910390203373ffffffffffffffffffffffffffffffffffffffff16867f332dfee3f310b4fdae7119d52dbe5c6aeb187e7256d13afa5010380644134257846116d88a612ed7565b6040516116e6929190613856565b60405180910390a45b5050505050565b600081600060016000838152602001908152602001600020600101805461171c90613b47565b80601f016020809104026020016040519081016040528092919081815260200182805461174890613b47565b80156117955780601f1061176a57610100808354040283529160200191611795565b820191906000526020600020905b81548152906001019060200180831161177857829003601f168201915b5050505050905060008151116117e0576040517f08c379a00000000000000000000000000000000000000000000000000000000081526004016117d79061375b565b60405180910390fd5b60006001600086815260200190815260200160002060060160003373ffffffffffffffffffffffffffffffffffffffff1673ffffffffffffffffffffffffffffffffffffffff1681526020019081526020016000205414156118455760009250611910565b60006001600086815260200190815260200160002060060160003373ffffffffffffffffffffffffffffffffffffffff1673ffffffffffffffffffffffffffffffffffffffff16815260200190815260200160002054905060006001600087815260200190815260200160002060040154670de0b6b3a7640000836118ca9190613a22565b6118d491906139f1565b9050670de0b6b3a76400006001600088815260200190815260200160002060050154826119019190613a22565b61190b91906139f1565b945050505b5050919050565b600081600060016000838152602001908152602001600020600101805461193d90613b47565b80601f016020809104026020016040519081016040528092919081815260200182805461196990613b47565b80156119b65780601f1061198b576101008083540402835291602001916119b6565b820191906000526020600020905b81548152906001019060200180831161199957829003601f168201915b505050505090506000815111611a01576040517f08c379a00000000000000000000000000000000000000000000000000000000081526004016119f89061375b565b60405180910390fd5b6001600085815260200190815260200160002060060160003373ffffffffffffffffffffffffffffffffffffffff1673ffffffffffffffffffffffffffffffffffffffff1681526020019081526020016000205492505050919050565b806000600160008381526020019081526020016000206001018054611a8290613b47565b80601f0160208091040260200160405190810160405280929190818152602001828054611aae90613b47565b8015611afb5780601f10611ad057610100808354040283529160200191611afb565b820191906000526020600020905b815481529060010190602001808311611ade57829003601f168201915b505050505090506000815111611b46576040517f08c379a0000000000000000000000000000000000000000000000000000000008152600401611b3d9061375b565b60405180910390fd5b826001600082815260200190815260200160002060000160009054906101000a900460ff16611baa576040517f08c379a0000000000000000000000000000000000000000000000000000000008152600401611ba1906137fb565b60405180910390fd5b60003411611bed576040517f08c379a0000000000000000000000000000000000000000000000000000000008152600401611be4906137db565b60405180910390fd5b34600160008681526020019081526020016000206005016000828254611c13919061399b565b92505081905550346001600086815260200190815260200160002060070160003373ffffffffffffffffffffffffffffffffffffffff1673ffffffffffffffffffffffffffffffffffffffff1681526020019081526020016000206000828254611c7d919061399b565b9250508190555060016000858152602001908152602001600020600201604051611ca791906135fd565b6040518091039020847fe929cf23ada6a724c2df3b05f4a6508569073e353d7d03873089f77fb5b40b4860405160405180910390a3600360009054906101000a900473ffffffffffffffffffffffffffffffffffffffff1673ffffffffffffffffffffffffffffffffffffffff166323b872dd60008054906101000a900473ffffffffffffffffffffffffffffffffffffffff1633346040518463ffffffff1660e01b8152600401611d5b93929190613636565b602060405180830381600087803b158015611d7557600080fd5b505af1158015611d89573d6000803e3d6000fd5b505050506040513d601f19601f82011682018060405250810190611dad91906130cf565b5050505050565b6060806060600060025467ffffffffffffffff811115611dd757611dd6613caf565b5b604051908082528060200260200182016040528015611e0a57816020015b6060815260200190600190039081611df55790505b509050600060025467ffffffffffffffff811115611e2b57611e2a613caf565b5b604051908082528060200260200182016040528015611e5e57816020015b6060815260200190600190039081611e495790505b509050600060025467ffffffffffffffff811115611e7f57611e7e613caf565b5b604051908082528060200260200182016040528015611ead5781602001602082028036833780820191505090505b509050600080600090505b6002548110156120a7576001600082815260200190815260200160002060000160009054906101000a900460ff161561209457600160008281526020019081526020016000206001018054611f0c90613b47565b80601f0160208091040260200160405190810160405280929190818152602001828054611f3890613b47565b8015611f855780601f10611f5a57610100808354040283529160200191611f85565b820191906000526020600020905b815481529060010190602001808311611f6857829003601f168201915b5050505050858381518110611f9d57611f9c613c80565b5b6020026020010181905250600160008281526020019081526020016000206002018054611fc990613b47565b80601f0160208091040260200160405190810160405280929190818152602001828054611ff590613b47565b80156120425780601f1061201757610100808354040283529160200191612042565b820191906000526020600020905b81548152906001019060200180831161202557829003601f168201915b505050505084838151811061205a57612059613c80565b5b60200260200101819052508083838151811061207957612078613c80565b5b602002602001018181525050818061209090613baa565b9250505b808061209f90613baa565b915050611eb8565b5083838396509650965050505050909192565b8060006001600083815260200190815260200160002060010180546120de90613b47565b80601f016020809104026020016040519081016040528092919081815260200182805461210a90613b47565b80156121575780601f1061212c57610100808354040283529160200191612157565b820191906000526020600020905b81548152906001019060200180831161213a57829003601f168201915b5050505050905060008151116121a2576040517f08c379a00000000000000000000000000000000000000000000000000000000081526004016121999061375b565b60405180910390fd5b826001600082815260200190815260200160002060000160019054906101000a900460ff16612206576040517f08c379a00000000000000000000000000000000000000000000000000000000081526004016121fd906137bb565b60405180910390fd5b60006001600083815260200190815260200160002060060160003373ffffffffffffffffffffffffffffffffffffffff1673ffffffffffffffffffffffffffffffffffffffff1681526020019081526020016000205411806122bb575060006001600083815260200190815260200160002060070160003373ffffffffffffffffffffffffffffffffffffffff1673ffffffffffffffffffffffffffffffffffffffff16815260200190815260200160002054115b6122fa576040517f08c379a00000000000000000000000000000000000000000000000000000000081526004016122f1906136fb565b60405180910390fd5b6001600085815260200190815260200160002060030160009054906101000a900460ff1660ff166001600086815260200190815260200160002060030160019054906101000a900460ff1660ff161015600160008681526020019081526020016000206001016040516020016123709190613614565b604051602081830303815290604052906123c0576040517f08c379a00000000000000000000000000000000000000000000000000000000081526004016123b791906136b9565b60405180910390fd5b5060006001600086815260200190815260200160002060070160003373ffffffffffffffffffffffffffffffffffffffff1673ffffffffffffffffffffffffffffffffffffffff1681526020019081526020016000205411612457576040517f08c379a000000000000000000000000000000000000000000000000000000000815260040161244e9061377b565b60405180910390fd5b60006001600086815260200190815260200160002060070160003373ffffffffffffffffffffffffffffffffffffffff1673ffffffffffffffffffffffffffffffffffffffff1681526020019081526020016000205490506001600086815260200190815260200160002060030160009054906101000a900460ff1660ff166001600087815260200190815260200160002060030160019054906101000a900460ff1660ff1611156127405760006001600087815260200190815260200160002060050154670de0b6b3a7640000836125309190613a22565b61253a91906139f1565b905060006001600088815260200190815260200160002060070160003373ffffffffffffffffffffffffffffffffffffffff1673ffffffffffffffffffffffffffffffffffffffff16815260200190815260200160002054670de0b6b3a7640000600160008a815260200190815260200160002060040154846125bd9190613a22565b6125c791906139f1565b6125d1919061399b565b905060006103e8826125e391906139f1565b905080600460008282546125f7919061399b565b925050819055503373ffffffffffffffffffffffffffffffffffffffff166108fc82846126249190613a7c565b9081150290604051600060405180830381858888f1935050505015801561264f573d6000803e3d6000fd5b506000600160008a815260200190815260200160002060070160003373ffffffffffffffffffffffffffffffffffffffff1673ffffffffffffffffffffffffffffffffffffffff16815260200190815260200160002081905550600160008981526020019081526020016000206002016040516126cc91906135fd565b60405180910390203373ffffffffffffffffffffffffffffffffffffffff16897f332dfee3f310b4fdae7119d52dbe5c6aeb187e7256d13afa501038064413425784866127199190613a7c565b6127228d612ed7565b604051612730929190613856565b60405180910390a450505061280c565b3373ffffffffffffffffffffffffffffffffffffffff166108fc829081150290604051600060405180830381858888f19350505050158015612786573d6000803e3d6000fd5b50600160008681526020019081526020016000206002016040516127aa91906135fd565b60405180910390203373ffffffffffffffffffffffffffffffffffffffff16867f332dfee3f310b4fdae7119d52dbe5c6aeb187e7256d13afa5010380644134257846127f58a612ed7565b604051612803929190613856565b60405180910390a45b5050505050565b80600060016000838152602001908152602001600020600101805461283790613b47565b80601f016020809104026020016040519081016040528092919081815260200182805461286390613b47565b80156128b05780601f10612885576101008083540402835291602001916128b0565b820191906000526020600020905b81548152906001019060200180831161289357829003601f168201915b5050505050905060008151116128fb576040517f08c379a00000000000000000000000000000000000000000000000000000000081526004016128f29061375b565b60405180910390fd5b826001600082815260200190815260200160002060000160009054906101000a900460ff1661295f576040517f08c379a0000000000000000000000000000000000000000000000000000000008152600401612956906137fb565b60405180910390fd5b600034116129a2576040517f08c379a0000000000000000000000000000000000000000000000000000000008152600401612999906137db565b60405180910390fd5b346001600086815260200190815260200160002060040160008282546129c8919061399b565b92505081905550346001600086815260200190815260200160002060060160003373ffffffffffffffffffffffffffffffffffffffff1673ffffffffffffffffffffffffffffffffffffffff1681526020019081526020016000206000828254612a32919061399b565b9250508190555060016000858152602001908152602001600020600101604051612a5c91906135fd565b6040518091039020847fe929cf23ada6a724c2df3b05f4a6508569073e353d7d03873089f77fb5b40b4860405160405180910390a3600360009054906101000a900473ffffffffffffffffffffffffffffffffffffffff1673ffffffffffffffffffffffffffffffffffffffff166323b872dd60008054906101000a900473ffffffffffffffffffffffffffffffffffffffff1633346040518463ffffffff1660e01b8152600401612b1093929190613636565b602060405180830381600087803b158015612b2a57600080fd5b505af1158015612b3e573d6000803e3d6000fd5b505050506040513d601f19601f82011682018060405250810190612b6291906130cf565b5050505050565b806000600160008381526020019081526020016000206001018054612b8d90613b47565b80601f0160208091040260200160405190810160405280929190818152602001828054612bb990613b47565b8015612c065780601f10612bdb57610100808354040283529160200191612c06565b820191906000526020600020905b815481529060010190602001808311612be957829003601f168201915b505050505090506000815111612c51576040517f08c379a0000000000000000000000000000000000000000000000000000000008152600401612c489061375b565b60405180910390fd5b60008054906101000a900473ffffffffffffffffffffffffffffffffffffffff1673ffffffffffffffffffffffffffffffffffffffff163373ffffffffffffffffffffffffffffffffffffffff1614612cdf576040517f08c379a0000000000000000000000000000000000000000000000000000000008152600401612cd6906136db565b60405180910390fd5b60006001600085815260200190815260200160002060030160006101000a81548160ff021916908360ff16021790555060006001600085815260200190815260200160002060030160016101000a81548160ff021916908360ff160217905550600180600085815260200190815260200160002060000160016101000a81548160ff021916908315150217905550600180600085815260200190815260200160002060000160026101000a81548160ff021916908315150217905550827f612c062aa219471d6a7ad857cdd6eb55608f5196f3f00db33c5ccefe81dc7e3060405160405180910390a2505050565b6000816000600160008381526020019081526020016000206001018054612df390613b47565b80601f0160208091040260200160405190810160405280929190818152602001828054612e1f90613b47565b8015612e6c5780601f10612e4157610100808354040283529160200191612e6c565b820191906000526020600020905b815481529060010190602001808311612e4f57829003601f168201915b505050505090506000815111612eb7576040517f08c379a0000000000000000000000000000000000000000000000000000000008152600401612eae9061375b565b60405180910390fd5b600160008581526020019081526020016000206004015492505050919050565b60606001600083815260200190815260200160002060000160029054906101000a900460ff1615612f3f576040518060400160405280600881526020017f506f7374706f6e650000000000000000000000000000000000000000000000008152509050612f78565b6040518060400160405280600681526020017f46696e697368000000000000000000000000000000000000000000000000000081525090505b919050565b828054612f8990613b47565b90600052602060002090601f016020900481019282612fab5760008555612ff2565b82601f10612fc457805160ff1916838001178555612ff2565b82800160010185558215612ff2579182015b82811115612ff1578251825591602001919060010190612fd6565b5b509050612fff9190613003565b5090565b5b8082111561301c576000816000905550600101613004565b5090565b600061303361302e846138ab565b613886565b90508281526020810184848401111561304f5761304e613ce3565b5b61305a848285613b05565b509392505050565b60008151905061307181613eef565b92915050565b600082601f83011261308c5761308b613cde565b5b813561309c848260208601613020565b91505092915050565b6000813590506130b481613f06565b92915050565b6000813590506130c981613f1d565b92915050565b6000602082840312156130e5576130e4613ced565b5b60006130f384828501613062565b91505092915050565b6000806040838503121561311357613112613ced565b5b600083013567ffffffffffffffff81111561313157613130613ce8565b5b61313d85828601613077565b925050602083013567ffffffffffffffff81111561315e5761315d613ce8565b5b61316a85828601613077565b9150509250929050565b60006020828403121561318a57613189613ced565b5b6000613198848285016130a5565b91505092915050565b6000806000606084860312156131ba576131b9613ced565b5b60006131c8868287016130a5565b93505060206131d9868287016130ba565b92505060406131ea868287016130ba565b9150509250925092565b60006132008383613302565b905092915050565b600061321483836135c8565b60208301905092915050565b61322981613ab0565b82525050565b600061323a82613911565b613244818561394c565b935083602082028501613256856138dc565b8060005b85811015613292578484038952815161327385826131f4565b945061327e83613932565b925060208a0199505060018101905061325a565b50829750879550505050505092915050565b60006132af8261391c565b6132b9818561395d565b93506132c4836138ec565b8060005b838110156132f55781516132dc8882613208565b97506132e78361393f565b9250506001810190506132c8565b5085935050505092915050565b600061330d82613927565b613317818561396e565b9350613327818560208601613b14565b61333081613cf2565b840191505092915050565b600061334682613927565b613350818561397f565b9350613360818560208601613b14565b61336981613cf2565b840191505092915050565b600061337f82613927565b6133898185613990565b9350613399818560208601613b14565b80840191505092915050565b600081546133b281613b47565b6133bc8186613990565b945060018216600081146133d757600181146133e85761341b565b60ff1983168652818601935061341b565b6133f1856138fc565b60005b83811015613413578154818901526001820191506020810190506133f4565b838801955050505b50505092915050565b6000613431600a8361397f565b915061343c82613d03565b602082019050919050565b600061345460188361397f565b915061345f82613d2c565b602082019050919050565b600061347760208361397f565b915061348282613d55565b602082019050919050565b600061349a60208361397f565b91506134a582613d7e565b602082019050919050565b60006134bd601a8361397f565b91506134c882613da7565b602082019050919050565b60006134e060118361397f565b91506134eb82613dd0565b602082019050919050565b600061350360178361397f565b915061350e82613df9565b602082019050919050565b6000613526601b8361397f565b915061353182613e22565b602082019050919050565b6000613549600b83613990565b915061355482613e4b565b600b82019050919050565b600061356c601d8361397f565b915061357782613e74565b602082019050919050565b600061358f60178361397f565b915061359a82613e9d565b602082019050919050565b60006135b260198361397f565b91506135bd82613ec6565b602082019050919050565b6135d181613aee565b82525050565b6135e081613aee565b82525050565b60006135f28284613374565b915081905092915050565b600061360982846133a5565b915081905092915050565b600061362082846133a5565b915061362b8261353c565b915081905092915050565b600060608201905061364b6000830186613220565b6136586020830185613220565b61366560408301846135d7565b949350505050565b60006060820190508181036000830152613687818661322f565b9050818103602083015261369b818561322f565b905081810360408301526136af81846132a4565b9050949350505050565b600060208201905081810360008301526136d3818461333b565b905092915050565b600060208201905081810360008301526136f481613424565b9050919050565b6000602082019050818103600083015261371481613447565b9050919050565b600060208201905081810360008301526137348161346a565b9050919050565b600060208201905081810360008301526137548161348d565b9050919050565b60006020820190508181036000830152613774816134b0565b9050919050565b60006020820190508181036000830152613794816134d3565b9050919050565b600060208201905081810360008301526137b4816134f6565b9050919050565b600060208201905081810360008301526137d481613519565b9050919050565b600060208201905081810360008301526137f48161355f565b9050919050565b6000602082019050818103600083015261381481613582565b9050919050565b60006020820190508181036000830152613834816135a5565b9050919050565b600060208201905061385060008301846135d7565b92915050565b600060408201905061386b60008301856135d7565b818103602083015261387d818461333b565b90509392505050565b60006138906138a1565b905061389c8282613b79565b919050565b6000604051905090565b600067ffffffffffffffff8211156138c6576138c5613caf565b5b6138cf82613cf2565b9050602081019050919050565b6000819050602082019050919050565b6000819050602082019050919050565b60008190508160005260206000209050919050565b600081519050919050565b600081519050919050565b600081519050919050565b6000602082019050919050565b6000602082019050919050565b600082825260208201905092915050565b600082825260208201905092915050565b600082825260208201905092915050565b600082825260208201905092915050565b600081905092915050565b60006139a682613aee565b91506139b183613aee565b9250827fffffffffffffffffffffffffffffffffffffffffffffffffffffffffffffffff038211156139e6576139e5613bf3565b5b828201905092915050565b60006139fc82613aee565b9150613a0783613aee565b925082613a1757613a16613c22565b5b828204905092915050565b6000613a2d82613aee565b9150613a3883613aee565b9250817fffffffffffffffffffffffffffffffffffffffffffffffffffffffffffffffff0483118215151615613a7157613a70613bf3565b5b828202905092915050565b6000613a8782613aee565b9150613a9283613aee565b925082821015613aa557613aa4613bf3565b5b828203905092915050565b6000613abb82613ace565b9050919050565b60008115159050919050565b600073ffffffffffffffffffffffffffffffffffffffff82169050919050565b6000819050919050565b600060ff82169050919050565b82818337600083830152505050565b60005b83811015613b32578082015181840152602081019050613b17565b83811115613b41576000848401525b50505050565b60006002820490506001821680613b5f57607f821691505b60208210811415613b7357613b72613c51565b5b50919050565b613b8282613cf2565b810181811067ffffffffffffffff82111715613ba157613ba0613caf565b5b80604052505050565b6000613bb582613aee565b91507fffffffffffffffffffffffffffffffffffffffffffffffffffffffffffffffff821415613be857613be7613bf3565b5b600182019050919050565b7f4e487b7100000000000000000000000000000000000000000000000000000000600052601160045260246000fd5b7f4e487b7100000000000000000000000000000000000000000000000000000000600052601260045260246000fd5b7f4e487b7100000000000000000000000000000000000000000000000000000000600052602260045260246000fd5b7f4e487b7100000000000000000000000000000000000000000000000000000000600052603260045260246000fd5b7f4e487b7100000000000000000000000000000000000000000000000000000000600052604160045260246000fd5b600080fd5b600080fd5b600080fd5b600080fd5b6000601f19601f8301169050919050565b7f4f6e6c79206f776e657200000000000000000000000000000000000000000000600082015250565b7f596f7520617265206e6f74207061727469636970616e742e0000000000000000600082015250565b7f5465616d2042206e616d652073686f756c64206e6f7420626520656d7074792e600082015250565b7f5465616d2041206e616d652073686f756c64206e6f7420626520656d7074792e600082015250565b7f54686973206d61746368206e6f7420637265617465207965742e000000000000600082015250565b7f4e6f7468696e6720746f20636c61696d2e000000000000000000000000000000600082015250565b7f54686973206d617463682069732066696e69736865642e000000000000000000600082015250565b7f54686973206d61746368206973206e6f742066696e69736865642e0000000000600082015250565b7f2069732077696e6e65722e000000000000000000000000000000000000000000600082015250565b7f416d6f756e74206d75737420677261746572207468616e207a65726f2e000000600082015250565b7f54686973206d61746368206973206e6f74206f70656e2e000000000000000000600082015250565b7f54686973206d61746368206e6f7420636c6f7365642079657400000000000000600082015250565b613ef881613ac2565b8114613f0357600080fd5b50565b613f0f81613aee565b8114613f1a57600080fd5b50565b613f2681613af8565b8114613f3157600080fd5b5056fea26469706673582212209ed583deb253004a4bb6599e99acf344771330385cfd7645625e7032a210b87c64736f6c63430008070033",
			"opcodes": "PUSH1 0x80 PUSH1 0x40 MSTORE CALLVALUE DUP1 ISZERO PUSH3 0x11 JUMPI PUSH1 0x0 DUP1 REVERT JUMPDEST POP PUSH1 0x40 MLOAD PUSH3 0x40E9 CODESIZE SUB DUP1 PUSH3 0x40E9 DUP4 CODECOPY DUP2 DUP2 ADD PUSH1 0x40 MSTORE DUP2 ADD SWAP1 PUSH3 0x37 SWAP2 SWAP1 PUSH3 0xD6 JUMP JUMPDEST CALLER PUSH1 0x0 DUP1 PUSH2 0x100 EXP DUP2 SLOAD DUP2 PUSH20 0xFFFFFFFFFFFFFFFFFFFFFFFFFFFFFFFFFFFFFFFF MUL NOT AND SWAP1 DUP4 PUSH20 0xFFFFFFFFFFFFFFFFFFFFFFFFFFFFFFFFFFFFFFFF AND MUL OR SWAP1 SSTORE POP DUP1 PUSH1 0x3 PUSH1 0x0 PUSH2 0x100 EXP DUP2 SLOAD DUP2 PUSH20 0xFFFFFFFFFFFFFFFFFFFFFFFFFFFFFFFFFFFFFFFF MUL NOT AND SWAP1 DUP4 PUSH20 0xFFFFFFFFFFFFFFFFFFFFFFFFFFFFFFFFFFFFFFFF AND MUL OR SWAP1 SSTORE POP POP PUSH3 0x16F JUMP JUMPDEST PUSH1 0x0 DUP2 MLOAD SWAP1 POP PUSH3 0xD0 DUP2 PUSH3 0x155 JUMP JUMPDEST SWAP3 SWAP2 POP POP JUMP JUMPDEST PUSH1 0x0 PUSH1 0x20 DUP3 DUP5 SUB SLT ISZERO PUSH3 0xEF JUMPI PUSH3 0xEE PUSH3 0x150 JUMP JUMPDEST JUMPDEST PUSH1 0x0 PUSH3 0xFF DUP5 DUP3 DUP6 ADD PUSH3 0xBF JUMP JUMPDEST SWAP2 POP POP SWAP3 SWAP2 POP POP JUMP JUMPDEST PUSH1 0x0 PUSH3 0x115 DUP3 PUSH3 0x130 JUMP JUMPDEST SWAP1 POP SWAP2 SWAP1 POP JUMP JUMPDEST PUSH1 0x0 PUSH3 0x129 DUP3 PUSH3 0x108 JUMP JUMPDEST SWAP1 POP SWAP2 SWAP1 POP JUMP JUMPDEST PUSH1 0x0 PUSH20 0xFFFFFFFFFFFFFFFFFFFFFFFFFFFFFFFFFFFFFFFF DUP3 AND SWAP1 POP SWAP2 SWAP1 POP JUMP JUMPDEST PUSH1 0x0 DUP1 REVERT JUMPDEST PUSH3 0x160 DUP2 PUSH3 0x11C JUMP JUMPDEST DUP2 EQ PUSH3 0x16C JUMPI PUSH1 0x0 DUP1 REVERT JUMPDEST POP JUMP JUMPDEST PUSH2 0x3F6A DUP1 PUSH3 0x17F PUSH1 0x0 CODECOPY PUSH1 0x0 RETURN INVALID PUSH1 0x80 PUSH1 0x40 MSTORE PUSH1 0x4 CALLDATASIZE LT PUSH2 0xF2 JUMPI PUSH1 0x0 CALLDATALOAD PUSH1 0xE0 SHR DUP1 PUSH4 0x7B4802F6 GT PUSH2 0x8A JUMPI DUP1 PUSH4 0xB1623C06 GT PUSH2 0x59 JUMPI DUP1 PUSH4 0xB1623C06 EQ PUSH2 0x32C JUMPI DUP1 PUSH4 0xD2CA8A39 EQ PUSH2 0x355 JUMPI DUP1 PUSH4 0xDCFB57EB EQ PUSH2 0x371 JUMPI DUP1 PUSH4 0xF4DE8584 EQ PUSH2 0x39A JUMPI PUSH2 0xF2 JUMP JUMPDEST DUP1 PUSH4 0x7B4802F6 EQ PUSH2 0x269 JUMPI DUP1 PUSH4 0x86E525E1 EQ PUSH2 0x2A6 JUMPI DUP1 PUSH4 0x9FC34860 EQ PUSH2 0x2E3 JUMPI DUP1 PUSH4 0xAB3C48F1 EQ PUSH2 0x2FF JUMPI PUSH2 0xF2 JUMP JUMPDEST DUP1 PUSH4 0x3D536704 GT PUSH2 0xC6 JUMPI DUP1 PUSH4 0x3D536704 EQ PUSH2 0x1C3 JUMPI DUP1 PUSH4 0x54FD4118 EQ PUSH2 0x1DA JUMPI DUP1 PUSH4 0x57447733 EQ PUSH2 0x217 JUMPI DUP1 PUSH4 0x69344C3F EQ PUSH2 0x240 JUMPI PUSH2 0xF2 JUMP JUMPDEST DUP1 PUSH3 0xA7079B EQ PUSH2 0xF7 JUMPI DUP1 PUSH4 0x12A518EE EQ PUSH2 0x120 JUMPI DUP1 PUSH4 0x224B1B3C EQ PUSH2 0x15D JUMPI DUP1 PUSH4 0x284EF410 EQ PUSH2 0x19A JUMPI JUMPDEST PUSH1 0x0 DUP1 REVERT JUMPDEST CALLVALUE DUP1 ISZERO PUSH2 0x103 JUMPI PUSH1 0x0 DUP1 REVERT JUMPDEST POP PUSH2 0x11E PUSH1 0x4 DUP1 CALLDATASIZE SUB DUP2 ADD SWAP1 PUSH2 0x119 SWAP2 SWAP1 PUSH2 0x3174 JUMP JUMPDEST PUSH2 0x3D7 JUMP JUMPDEST STOP JUMPDEST CALLVALUE DUP1 ISZERO PUSH2 0x12C JUMPI PUSH1 0x0 DUP1 REVERT JUMPDEST POP PUSH2 0x147 PUSH1 0x4 DUP1 CALLDATASIZE SUB DUP2 ADD SWAP1 PUSH2 0x142 SWAP2 SWAP1 PUSH2 0x3174 JUMP JUMPDEST PUSH2 0x529 JUMP JUMPDEST PUSH1 0x40 MLOAD PUSH2 0x154 SWAP2 SWAP1 PUSH2 0x383B JUMP JUMPDEST PUSH1 0x40 MLOAD DUP1 SWAP2 SUB SWAP1 RETURN JUMPDEST CALLVALUE DUP1 ISZERO PUSH2 0x169 JUMPI PUSH1 0x0 DUP1 REVERT JUMPDEST POP PUSH2 0x184 PUSH1 0x4 DUP1 CALLDATASIZE SUB DUP2 ADD SWAP1 PUSH2 0x17F SWAP2 SWAP1 PUSH2 0x3174 JUMP JUMPDEST PUSH2 0x670 JUMP JUMPDEST PUSH1 0x40 MLOAD PUSH2 0x191 SWAP2 SWAP1 PUSH2 0x383B JUMP JUMPDEST PUSH1 0x40 MLOAD DUP1 SWAP2 SUB SWAP1 RETURN JUMPDEST CALLVALUE DUP1 ISZERO PUSH2 0x1A6 JUMPI PUSH1 0x0 DUP1 REVERT JUMPDEST POP PUSH2 0x1C1 PUSH1 0x4 DUP1 CALLDATASIZE SUB DUP2 ADD SWAP1 PUSH2 0x1BC SWAP2 SWAP1 PUSH2 0x31A1 JUMP JUMPDEST PUSH2 0x891 JUMP JUMPDEST STOP JUMPDEST CALLVALUE DUP1 ISZERO PUSH2 0x1CF JUMPI PUSH1 0x0 DUP1 REVERT JUMPDEST POP PUSH2 0x1D8 PUSH2 0xB8F JUMP JUMPDEST STOP JUMPDEST CALLVALUE DUP1 ISZERO PUSH2 0x1E6 JUMPI PUSH1 0x0 DUP1 REVERT JUMPDEST POP PUSH2 0x201 PUSH1 0x4 DUP1 CALLDATASIZE SUB DUP2 ADD SWAP1 PUSH2 0x1FC SWAP2 SWAP1 PUSH2 0x3174 JUMP JUMPDEST PUSH2 0xC70 JUMP JUMPDEST PUSH1 0x40 MLOAD PUSH2 0x20E SWAP2 SWAP1 PUSH2 0x383B JUMP JUMPDEST PUSH1 0x40 MLOAD DUP1 SWAP2 SUB SWAP1 RETURN JUMPDEST CALLVALUE DUP1 ISZERO PUSH2 0x223 JUMPI PUSH1 0x0 DUP1 REVERT JUMPDEST POP PUSH2 0x23E PUSH1 0x4 DUP1 CALLDATASIZE SUB DUP2 ADD SWAP1 PUSH2 0x239 SWAP2 SWAP1 PUSH2 0x30FC JUMP JUMPDEST PUSH2 0xD7A JUMP JUMPDEST STOP JUMPDEST CALLVALUE DUP1 ISZERO PUSH2 0x24C JUMPI PUSH1 0x0 DUP1 REVERT JUMPDEST POP PUSH2 0x267 PUSH1 0x4 DUP1 CALLDATASIZE SUB DUP2 ADD SWAP1 PUSH2 0x262 SWAP2 SWAP1 PUSH2 0x3174 JUMP JUMPDEST PUSH2 0xF9D JUMP JUMPDEST STOP JUMPDEST CALLVALUE DUP1 ISZERO PUSH2 0x275 JUMPI PUSH1 0x0 DUP1 REVERT JUMPDEST POP PUSH2 0x290 PUSH1 0x4 DUP1 CALLDATASIZE SUB DUP2 ADD SWAP1 PUSH2 0x28B SWAP2 SWAP1 PUSH2 0x3174 JUMP JUMPDEST PUSH2 0x16F6 JUMP JUMPDEST PUSH1 0x40 MLOAD PUSH2 0x29D SWAP2 SWAP1 PUSH2 0x383B JUMP JUMPDEST PUSH1 0x40 MLOAD DUP1 SWAP2 SUB SWAP1 RETURN JUMPDEST CALLVALUE DUP1 ISZERO PUSH2 0x2B2 JUMPI PUSH1 0x0 DUP1 REVERT JUMPDEST POP PUSH2 0x2CD PUSH1 0x4 DUP1 CALLDATASIZE SUB DUP2 ADD SWAP1 PUSH2 0x2C8 SWAP2 SWAP1 PUSH2 0x3174 JUMP JUMPDEST PUSH2 0x1917 JUMP JUMPDEST PUSH1 0x40 MLOAD PUSH2 0x2DA SWAP2 SWAP1 PUSH2 0x383B JUMP JUMPDEST PUSH1 0x40 MLOAD DUP1 SWAP2 SUB SWAP1 RETURN JUMPDEST PUSH2 0x2FD PUSH1 0x4 DUP1 CALLDATASIZE SUB DUP2 ADD SWAP1 PUSH2 0x2F8 SWAP2 SWAP1 PUSH2 0x3174 JUMP JUMPDEST PUSH2 0x1A5E JUMP JUMPDEST STOP JUMPDEST CALLVALUE DUP1 ISZERO PUSH2 0x30B JUMPI PUSH1 0x0 DUP1 REVERT JUMPDEST POP PUSH2 0x314 PUSH2 0x1DB4 JUMP JUMPDEST PUSH1 0x40 MLOAD PUSH2 0x323 SWAP4 SWAP3 SWAP2 SWAP1 PUSH2 0x366D JUMP JUMPDEST PUSH1 0x40 MLOAD DUP1 SWAP2 SUB SWAP1 RETURN JUMPDEST CALLVALUE DUP1 ISZERO PUSH2 0x338 JUMPI PUSH1 0x0 DUP1 REVERT JUMPDEST POP PUSH2 0x353 PUSH1 0x4 DUP1 CALLDATASIZE SUB DUP2 ADD SWAP1 PUSH2 0x34E SWAP2 SWAP1 PUSH2 0x3174 JUMP JUMPDEST PUSH2 0x20BA JUMP JUMPDEST STOP JUMPDEST PUSH2 0x36F PUSH1 0x4 DUP1 CALLDATASIZE SUB DUP2 ADD SWAP1 PUSH2 0x36A SWAP2 SWAP1 PUSH2 0x3174 JUMP JUMPDEST PUSH2 0x2813 JUMP JUMPDEST STOP JUMPDEST CALLVALUE DUP1 ISZERO PUSH2 0x37D JUMPI PUSH1 0x0 DUP1 REVERT JUMPDEST POP PUSH2 0x398 PUSH1 0x4 DUP1 CALLDATASIZE SUB DUP2 ADD SWAP1 PUSH2 0x393 SWAP2 SWAP1 PUSH2 0x3174 JUMP JUMPDEST PUSH2 0x2B69 JUMP JUMPDEST STOP JUMPDEST CALLVALUE DUP1 ISZERO PUSH2 0x3A6 JUMPI PUSH1 0x0 DUP1 REVERT JUMPDEST POP PUSH2 0x3C1 PUSH1 0x4 DUP1 CALLDATASIZE SUB DUP2 ADD SWAP1 PUSH2 0x3BC SWAP2 SWAP1 PUSH2 0x3174 JUMP JUMPDEST PUSH2 0x2DCD JUMP JUMPDEST PUSH1 0x40 MLOAD PUSH2 0x3CE SWAP2 SWAP1 PUSH2 0x383B JUMP JUMPDEST PUSH1 0x40 MLOAD DUP1 SWAP2 SUB SWAP1 RETURN JUMPDEST PUSH1 0x0 DUP1 SLOAD SWAP1 PUSH2 0x100 EXP SWAP1 DIV PUSH20 0xFFFFFFFFFFFFFFFFFFFFFFFFFFFFFFFFFFFFFFFF AND PUSH20 0xFFFFFFFFFFFFFFFFFFFFFFFFFFFFFFFFFFFFFFFF AND CALLER PUSH20 0xFFFFFFFFFFFFFFFFFFFFFFFFFFFFFFFFFFFFFFFF AND EQ PUSH2 0x465 JUMPI PUSH1 0x40 MLOAD PUSH32 0x8C379A000000000000000000000000000000000000000000000000000000000 DUP2 MSTORE PUSH1 0x4 ADD PUSH2 0x45C SWAP1 PUSH2 0x36DB JUMP JUMPDEST PUSH1 0x40 MLOAD DUP1 SWAP2 SUB SWAP1 REVERT JUMPDEST DUP1 PUSH1 0x1 PUSH1 0x0 DUP3 DUP2 MSTORE PUSH1 0x20 ADD SWAP1 DUP2 MSTORE PUSH1 0x20 ADD PUSH1 0x0 KECCAK256 PUSH1 0x0 ADD PUSH1 0x0 SWAP1 SLOAD SWAP1 PUSH2 0x100 EXP SWAP1 DIV PUSH1 0xFF AND PUSH2 0x4C9 JUMPI PUSH1 0x40 MLOAD PUSH32 0x8C379A000000000000000000000000000000000000000000000000000000000 DUP2 MSTORE PUSH1 0x4 ADD PUSH2 0x4C0 SWAP1 PUSH2 0x37FB JUMP JUMPDEST PUSH1 0x40 MLOAD DUP1 SWAP2 SUB SWAP1 REVERT JUMPDEST PUSH1 0x0 PUSH1 0x1 PUSH1 0x0 DUP5 DUP2 MSTORE PUSH1 0x20 ADD SWAP1 DUP2 MSTORE PUSH1 0x20 ADD PUSH1 0x0 KECCAK256 PUSH1 0x0 ADD PUSH1 0x0 PUSH2 0x100 EXP DUP2 SLOAD DUP2 PUSH1 0xFF MUL NOT AND SWAP1 DUP4 ISZERO ISZERO MUL OR SWAP1 SSTORE POP DUP2 PUSH32 0xC4902B3A978682A196942C5D9DA0F9F46F4034F31B152138D9B2F446885690E PUSH1 0x40 MLOAD PUSH1 0x40 MLOAD DUP1 SWAP2 SUB SWAP1 LOG2 POP POP JUMP JUMPDEST PUSH1 0x0 DUP2 PUSH1 0x0 PUSH1 0x1 PUSH1 0x0 DUP4 DUP2 MSTORE PUSH1 0x20 ADD SWAP1 DUP2 MSTORE PUSH1 0x20 ADD PUSH1 0x0 KECCAK256 PUSH1 0x1 ADD DUP1 SLOAD PUSH2 0x54F SWAP1 PUSH2 0x3B47 JUMP JUMPDEST DUP1 PUSH1 0x1F ADD PUSH1 0x20 DUP1 SWAP2 DIV MUL PUSH1 0x20 ADD PUSH1 0x40 MLOAD SWAP1 DUP2 ADD PUSH1 0x40 MSTORE DUP1 SWAP3 SWAP2 SWAP1 DUP2 DUP2 MSTORE PUSH1 0x20 ADD DUP3 DUP1 SLOAD PUSH2 0x57B SWAP1 PUSH2 0x3B47 JUMP JUMPDEST DUP1 ISZERO PUSH2 0x5C8 JUMPI DUP1 PUSH1 0x1F LT PUSH2 0x59D JUMPI PUSH2 0x100 DUP1 DUP4 SLOAD DIV MUL DUP4 MSTORE SWAP2 PUSH1 0x20 ADD SWAP2 PUSH2 0x5C8 JUMP JUMPDEST DUP3 ADD SWAP2 SWAP1 PUSH1 0x0 MSTORE PUSH1 0x20 PUSH1 0x0 KECCAK256 SWAP1 JUMPDEST DUP2 SLOAD DUP2 MSTORE SWAP1 PUSH1 0x1 ADD SWAP1 PUSH1 0x20 ADD DUP1 DUP4 GT PUSH2 0x5AB JUMPI DUP3 SWAP1 SUB PUSH1 0x1F AND DUP3 ADD SWAP2 JUMPDEST POP POP POP POP POP SWAP1 POP PUSH1 0x0 DUP2 MLOAD GT PUSH2 0x613 JUMPI PUSH1 0x40 MLOAD PUSH32 0x8C379A000000000000000000000000000000000000000000000000000000000 DUP2 MSTORE PUSH1 0x4 ADD PUSH2 0x60A SWAP1 PUSH2 0x375B JUMP JUMPDEST PUSH1 0x40 MLOAD DUP1 SWAP2 SUB SWAP1 REVERT JUMPDEST PUSH1 0x1 PUSH1 0x0 DUP6 DUP2 MSTORE PUSH1 0x20 ADD SWAP1 DUP2 MSTORE PUSH1 0x20 ADD PUSH1 0x0 KECCAK256 PUSH1 0x7 ADD PUSH1 0x0 CALLER PUSH20 0xFFFFFFFFFFFFFFFFFFFFFFFFFFFFFFFFFFFFFFFF AND PUSH20 0xFFFFFFFFFFFFFFFFFFFFFFFFFFFFFFFFFFFFFFFF AND DUP2 MSTORE PUSH1 0x20 ADD SWAP1 DUP2 MSTORE PUSH1 0x20 ADD PUSH1 0x0 KECCAK256 SLOAD SWAP3 POP POP POP SWAP2 SWAP1 POP JUMP JUMPDEST PUSH1 0x0 DUP2 PUSH1 0x0 PUSH1 0x1 PUSH1 0x0 DUP4 DUP2 MSTORE PUSH1 0x20 ADD SWAP1 DUP2 MSTORE PUSH1 0x20 ADD PUSH1 0x0 KECCAK256 PUSH1 0x1 ADD DUP1 SLOAD PUSH2 0x696 SWAP1 PUSH2 0x3B47 JUMP JUMPDEST DUP1 PUSH1 0x1F ADD PUSH1 0x20 DUP1 SWAP2 DIV MUL PUSH1 0x20 ADD PUSH1 0x40 MLOAD SWAP1 DUP2 ADD PUSH1 0x40 MSTORE DUP1 SWAP3 SWAP2 SWAP1 DUP2 DUP2 MSTORE PUSH1 0x20 ADD DUP3 DUP1 SLOAD PUSH2 0x6C2 SWAP1 PUSH2 0x3B47 JUMP JUMPDEST DUP1 ISZERO PUSH2 0x70F JUMPI DUP1 PUSH1 0x1F LT PUSH2 0x6E4 JUMPI PUSH2 0x100 DUP1 DUP4 SLOAD DIV MUL DUP4 MSTORE SWAP2 PUSH1 0x20 ADD SWAP2 PUSH2 0x70F JUMP JUMPDEST DUP3 ADD SWAP2 SWAP1 PUSH1 0x0 MSTORE PUSH1 0x20 PUSH1 0x0 KECCAK256 SWAP1 JUMPDEST DUP2 SLOAD DUP2 MSTORE SWAP1 PUSH1 0x1 ADD SWAP1 PUSH1 0x20 ADD DUP1 DUP4 GT PUSH2 0x6F2 JUMPI DUP3 SWAP1 SUB PUSH1 0x1F AND DUP3 ADD SWAP2 JUMPDEST POP POP POP POP POP SWAP1 POP PUSH1 0x0 DUP2 MLOAD GT PUSH2 0x75A JUMPI PUSH1 0x40 MLOAD PUSH32 0x8C379A000000000000000000000000000000000000000000000000000000000 DUP2 MSTORE PUSH1 0x4 ADD PUSH2 0x751 SWAP1 PUSH2 0x375B JUMP JUMPDEST PUSH1 0x40 MLOAD DUP1 SWAP2 SUB SWAP1 REVERT JUMPDEST PUSH1 0x0 PUSH1 0x1 PUSH1 0x0 DUP7 DUP2 MSTORE PUSH1 0x20 ADD SWAP1 DUP2 MSTORE PUSH1 0x20 ADD PUSH1 0x0 KECCAK256 PUSH1 0x7 ADD PUSH1 0x0 CALLER PUSH20 0xFFFFFFFFFFFFFFFFFFFFFFFFFFFFFFFFFFFFFFFF AND PUSH20 0xFFFFFFFFFFFFFFFFFFFFFFFFFFFFFFFFFFFFFFFF AND DUP2 MSTORE PUSH1 0x20 ADD SWAP1 DUP2 MSTORE PUSH1 0x20 ADD PUSH1 0x0 KECCAK256 SLOAD EQ ISZERO PUSH2 0x7BF JUMPI PUSH1 0x0 SWAP3 POP PUSH2 0x88A JUMP JUMPDEST PUSH1 0x0 PUSH1 0x1 PUSH1 0x0 DUP7 DUP2 MSTORE PUSH1 0x20 ADD SWAP1 DUP2 MSTORE PUSH1 0x20 ADD PUSH1 0x0 KECCAK256 PUSH1 0x7 ADD PUSH1 0x0 CALLER PUSH20 0xFFFFFFFFFFFFFFFFFFFFFFFFFFFFFFFFFFFFFFFF AND PUSH20 0xFFFFFFFFFFFFFFFFFFFFFFFFFFFFFFFFFFFFFFFF AND DUP2 MSTORE PUSH1 0x20 ADD SWAP1 DUP2 MSTORE PUSH1 0x20 ADD PUSH1 0x0 KECCAK256 SLOAD SWAP1 POP PUSH1 0x0 PUSH1 0x1 PUSH1 0x0 DUP8 DUP2 MSTORE PUSH1 0x20 ADD SWAP1 DUP2 MSTORE PUSH1 0x20 ADD PUSH1 0x0 KECCAK256 PUSH1 0x5 ADD SLOAD PUSH8 0xDE0B6B3A7640000 DUP4 PUSH2 0x844 SWAP2 SWAP1 PUSH2 0x3A22 JUMP JUMPDEST PUSH2 0x84E SWAP2 SWAP1 PUSH2 0x39F1 JUMP JUMPDEST SWAP1 POP PUSH8 0xDE0B6B3A7640000 PUSH1 0x1 PUSH1 0x0 DUP9 DUP2 MSTORE PUSH1 0x20 ADD SWAP1 DUP2 MSTORE PUSH1 0x20 ADD PUSH1 0x0 KECCAK256 PUSH1 0x4 ADD SLOAD DUP3 PUSH2 0x87B SWAP2 SWAP1 PUSH2 0x3A22 JUMP JUMPDEST PUSH2 0x885 SWAP2 SWAP1 PUSH2 0x39F1 JUMP JUMPDEST SWAP5 POP POP POP JUMPDEST POP POP SWAP2 SWAP1 POP JUMP JUMPDEST PUSH1 0x0 DUP1 SLOAD SWAP1 PUSH2 0x100 EXP SWAP1 DIV PUSH20 0xFFFFFFFFFFFFFFFFFFFFFFFFFFFFFFFFFFFFFFFF AND PUSH20 0xFFFFFFFFFFFFFFFFFFFFFFFFFFFFFFFFFFFFFFFF AND CALLER PUSH20 0xFFFFFFFFFFFFFFFFFFFFFFFFFFFFFFFFFFFFFFFF AND EQ PUSH2 0x91F JUMPI PUSH1 0x40 MLOAD PUSH32 0x8C379A000000000000000000000000000000000000000000000000000000000 DUP2 MSTORE PUSH1 0x4 ADD PUSH2 0x916 SWAP1 PUSH2 0x36DB JUMP JUMPDEST PUSH1 0x40 MLOAD DUP1 SWAP2 SUB SWAP1 REVERT JUMPDEST DUP3 PUSH1 0x0 PUSH1 0x1 PUSH1 0x0 DUP4 DUP2 MSTORE PUSH1 0x20 ADD SWAP1 DUP2 MSTORE PUSH1 0x20 ADD PUSH1 0x0 KECCAK256 PUSH1 0x1 ADD DUP1 SLOAD PUSH2 0x943 SWAP1 PUSH2 0x3B47 JUMP JUMPDEST DUP1 PUSH1 0x1F ADD PUSH1 0x20 DUP1 SWAP2 DIV MUL PUSH1 0x20 ADD PUSH1 0x40 MLOAD SWAP1 DUP2 ADD PUSH1 0x40 MSTORE DUP1 SWAP3 SWAP2 SWAP1 DUP2 DUP2 MSTORE PUSH1 0x20 ADD DUP3 DUP1 SLOAD PUSH2 0x96F SWAP1 PUSH2 0x3B47 JUMP JUMPDEST DUP1 ISZERO PUSH2 0x9BC JUMPI DUP1 PUSH1 0x1F LT PUSH2 0x991 JUMPI PUSH2 0x100 DUP1 DUP4 SLOAD DIV MUL DUP4 MSTORE SWAP2 PUSH1 0x20 ADD SWAP2 PUSH2 0x9BC JUMP JUMPDEST DUP3 ADD SWAP2 SWAP1 PUSH1 0x0 MSTORE PUSH1 0x20 PUSH1 0x0 KECCAK256 SWAP1 JUMPDEST DUP2 SLOAD DUP2 MSTORE SWAP1 PUSH1 0x1 ADD SWAP1 PUSH1 0x20 ADD DUP1 DUP4 GT PUSH2 0x99F JUMPI DUP3 SWAP1 SUB PUSH1 0x1F AND DUP3 ADD SWAP2 JUMPDEST POP POP POP POP POP SWAP1 POP PUSH1 0x0 DUP2 MLOAD GT PUSH2 0xA07 JUMPI PUSH1 0x40 MLOAD PUSH32 0x8C379A000000000000000000000000000000000000000000000000000000000 DUP2 MSTORE PUSH1 0x4 ADD PUSH2 0x9FE SWAP1 PUSH2 0x375B JUMP JUMPDEST PUSH1 0x40 MLOAD DUP1 SWAP2 SUB SWAP1 REVERT JUMPDEST PUSH1 0x1 PUSH1 0x0 DUP4 DUP2 MSTORE PUSH1 0x20 ADD SWAP1 DUP2 MSTORE PUSH1 0x20 ADD PUSH1 0x0 KECCAK256 PUSH1 0x0 ADD PUSH1 0x0 SWAP1 SLOAD SWAP1 PUSH2 0x100 EXP SWAP1 DIV PUSH1 0xFF AND ISZERO PUSH2 0xA6B JUMPI PUSH1 0x40 MLOAD PUSH32 0x8C379A000000000000000000000000000000000000000000000000000000000 DUP2 MSTORE PUSH1 0x4 ADD PUSH2 0xA62 SWAP1 PUSH2 0x381B JUMP JUMPDEST PUSH1 0x40 MLOAD DUP1 SWAP2 SUB SWAP1 REVERT JUMPDEST PUSH1 0x1 PUSH1 0x0 DUP4 DUP2 MSTORE PUSH1 0x20 ADD SWAP1 DUP2 MSTORE PUSH1 0x20 ADD PUSH1 0x0 KECCAK256 PUSH1 0x0 ADD PUSH1 0x1 SWAP1 SLOAD SWAP1 PUSH2 0x100 EXP SWAP1 DIV PUSH1 0xFF AND ISZERO PUSH2 0xACF JUMPI PUSH1 0x40 MLOAD PUSH32 0x8C379A000000000000000000000000000000000000000000000000000000000 DUP2 MSTORE PUSH1 0x4 ADD PUSH2 0xAC6 SWAP1 PUSH2 0x379B JUMP JUMPDEST PUSH1 0x40 MLOAD DUP1 SWAP2 SUB SWAP1 REVERT JUMPDEST DUP4 PUSH1 0x1 PUSH1 0x0 DUP8 DUP2 MSTORE PUSH1 0x20 ADD SWAP1 DUP2 MSTORE PUSH1 0x20 ADD PUSH1 0x0 KECCAK256 PUSH1 0x3 ADD PUSH1 0x0 PUSH2 0x100 EXP DUP2 SLOAD DUP2 PUSH1 0xFF MUL NOT AND SWAP1 DUP4 PUSH1 0xFF AND MUL OR SWAP1 SSTORE POP DUP3 PUSH1 0x1 PUSH1 0x0 DUP8 DUP2 MSTORE PUSH1 0x20 ADD SWAP1 DUP2 MSTORE PUSH1 0x20 ADD PUSH1 0x0 KECCAK256 PUSH1 0x3 ADD PUSH1 0x1 PUSH2 0x100 EXP DUP2 SLOAD DUP2 PUSH1 0xFF MUL NOT AND SWAP1 DUP4 PUSH1 0xFF AND MUL OR SWAP1 SSTORE POP PUSH1 0x1 DUP1 PUSH1 0x0 DUP8 DUP2 MSTORE PUSH1 0x20 ADD SWAP1 DUP2 MSTORE PUSH1 0x20 ADD PUSH1 0x0 KECCAK256 PUSH1 0x0 ADD PUSH1 0x1 PUSH2 0x100 EXP DUP2 SLOAD DUP2 PUSH1 0xFF MUL NOT AND SWAP1 DUP4 ISZERO ISZERO MUL OR SWAP1 SSTORE POP DUP5 PUSH32 0xB0F0D5300B9078146E1B189A7F1C94604D37C52C89FDA96E9EA036B7E54D6DA0 PUSH1 0x40 MLOAD PUSH1 0x40 MLOAD DUP1 SWAP2 SUB SWAP1 LOG2 POP POP POP POP POP JUMP JUMPDEST PUSH1 0x0 DUP1 SLOAD SWAP1 PUSH2 0x100 EXP SWAP1 DIV PUSH20 0xFFFFFFFFFFFFFFFFFFFFFFFFFFFFFFFFFFFFFFFF AND PUSH20 0xFFFFFFFFFFFFFFFFFFFFFFFFFFFFFFFFFFFFFFFF AND CALLER PUSH20 0xFFFFFFFFFFFFFFFFFFFFFFFFFFFFFFFFFFFFFFFF AND EQ PUSH2 0xC1D JUMPI PUSH1 0x40 MLOAD PUSH32 0x8C379A000000000000000000000000000000000000000000000000000000000 DUP2 MSTORE PUSH1 0x4 ADD PUSH2 0xC14 SWAP1 PUSH2 0x36DB JUMP JUMPDEST PUSH1 0x40 MLOAD DUP1 SWAP2 SUB SWAP1 REVERT JUMPDEST CALLER PUSH20 0xFFFFFFFFFFFFFFFFFFFFFFFFFFFFFFFFFFFFFFFF AND PUSH2 0x8FC PUSH1 0x4 SLOAD SWAP1 DUP2 ISZERO MUL SWAP1 PUSH1 0x40 MLOAD PUSH1 0x0 PUSH1 0x40 MLOAD DUP1 DUP4 SUB DUP2 DUP6 DUP9 DUP9 CALL SWAP4 POP POP POP POP ISZERO DUP1 ISZERO PUSH2 0xC65 JUMPI RETURNDATASIZE PUSH1 0x0 DUP1 RETURNDATACOPY RETURNDATASIZE PUSH1 0x0 REVERT JUMPDEST POP PUSH1 0x0 PUSH1 0x4 DUP2 SWAP1 SSTORE POP JUMP JUMPDEST PUSH1 0x0 DUP2 PUSH1 0x0 PUSH1 0x1 PUSH1 0x0 DUP4 DUP2 MSTORE PUSH1 0x20 ADD SWAP1 DUP2 MSTORE PUSH1 0x20 ADD PUSH1 0x0 KECCAK256 PUSH1 0x1 ADD DUP1 SLOAD PUSH2 0xC96 SWAP1 PUSH2 0x3B47 JUMP JUMPDEST DUP1 PUSH1 0x1F ADD PUSH1 0x20 DUP1 SWAP2 DIV MUL PUSH1 0x20 ADD PUSH1 0x40 MLOAD SWAP1 DUP2 ADD PUSH1 0x40 MSTORE DUP1 SWAP3 SWAP2 SWAP1 DUP2 DUP2 MSTORE PUSH1 0x20 ADD DUP3 DUP1 SLOAD PUSH2 0xCC2 SWAP1 PUSH2 0x3B47 JUMP JUMPDEST DUP1 ISZERO PUSH2 0xD0F JUMPI DUP1 PUSH1 0x1F LT PUSH2 0xCE4 JUMPI PUSH2 0x100 DUP1 DUP4 SLOAD DIV MUL DUP4 MSTORE SWAP2 PUSH1 0x20 ADD SWAP2 PUSH2 0xD0F JUMP JUMPDEST DUP3 ADD SWAP2 SWAP1 PUSH1 0x0 MSTORE PUSH1 0x20 PUSH1 0x0 KECCAK256 SWAP1 JUMPDEST DUP2 SLOAD DUP2 MSTORE SWAP1 PUSH1 0x1 ADD SWAP1 PUSH1 0x20 ADD DUP1 DUP4 GT PUSH2 0xCF2 JUMPI DUP3 SWAP1 SUB PUSH1 0x1F AND DUP3 ADD SWAP2 JUMPDEST POP POP POP POP POP SWAP1 POP PUSH1 0x0 DUP2 MLOAD GT PUSH2 0xD5A JUMPI PUSH1 0x40 MLOAD PUSH32 0x8C379A000000000000000000000000000000000000000000000000000000000 DUP2 MSTORE PUSH1 0x4 ADD PUSH2 0xD51 SWAP1 PUSH2 0x375B JUMP JUMPDEST PUSH1 0x40 MLOAD DUP1 SWAP2 SUB SWAP1 REVERT JUMPDEST PUSH1 0x1 PUSH1 0x0 DUP6 DUP2 MSTORE PUSH1 0x20 ADD SWAP1 DUP2 MSTORE PUSH1 0x20 ADD PUSH1 0x0 KECCAK256 PUSH1 0x5 ADD SLOAD SWAP3 POP POP POP SWAP2 SWAP1 POP JUMP JUMPDEST PUSH1 0x0 DUP1 SLOAD SWAP1 PUSH2 0x100 EXP SWAP1 DIV PUSH20 0xFFFFFFFFFFFFFFFFFFFFFFFFFFFFFFFFFFFFFFFF AND PUSH20 0xFFFFFFFFFFFFFFFFFFFFFFFFFFFFFFFFFFFFFFFF AND CALLER PUSH20 0xFFFFFFFFFFFFFFFFFFFFFFFFFFFFFFFFFFFFFFFF AND EQ PUSH2 0xE08 JUMPI PUSH1 0x40 MLOAD PUSH32 0x8C379A000000000000000000000000000000000000000000000000000000000 DUP2 MSTORE PUSH1 0x4 ADD PUSH2 0xDFF SWAP1 PUSH2 0x36DB JUMP JUMPDEST PUSH1 0x40 MLOAD DUP1 SWAP2 SUB SWAP1 REVERT JUMPDEST PUSH1 0x0 DUP3 SWAP1 POP PUSH1 0x0 DUP3 SWAP1 POP PUSH1 0x0 DUP3 MLOAD GT PUSH2 0xE56 JUMPI PUSH1 0x40 MLOAD PUSH32 0x8C379A000000000000000000000000000000000000000000000000000000000 DUP2 MSTORE PUSH1 0x4 ADD PUSH2 0xE4D SWAP1 PUSH2 0x373B JUMP JUMPDEST PUSH1 0x40 MLOAD DUP1 SWAP2 SUB SWAP1 REVERT JUMPDEST PUSH1 0x0 DUP2 MLOAD GT PUSH2 0xE9A JUMPI PUSH1 0x40 MLOAD PUSH32 0x8C379A000000000000000000000000000000000000000000000000000000000 DUP2 MSTORE PUSH1 0x4 ADD PUSH2 0xE91 SWAP1 PUSH2 0x371B JUMP JUMPDEST PUSH1 0x40 MLOAD DUP1 SWAP2 SUB SWAP1 REVERT JUMPDEST DUP4 PUSH1 0x1 PUSH1 0x0 PUSH1 0x2 SLOAD DUP2 MSTORE PUSH1 0x20 ADD SWAP1 DUP2 MSTORE PUSH1 0x20 ADD PUSH1 0x0 KECCAK256 PUSH1 0x1 ADD SWAP1 DUP1 MLOAD SWAP1 PUSH1 0x20 ADD SWAP1 PUSH2 0xEC6 SWAP3 SWAP2 SWAP1 PUSH2 0x2F7D JUMP JUMPDEST POP DUP3 PUSH1 0x1 PUSH1 0x0 PUSH1 0x2 SLOAD DUP2 MSTORE PUSH1 0x20 ADD SWAP1 DUP2 MSTORE PUSH1 0x20 ADD PUSH1 0x0 KECCAK256 PUSH1 0x2 ADD SWAP1 DUP1 MLOAD SWAP1 PUSH1 0x20 ADD SWAP1 PUSH2 0xEF3 SWAP3 SWAP2 SWAP1 PUSH2 0x2F7D JUMP JUMPDEST POP PUSH1 0x1 DUP1 PUSH1 0x0 PUSH1 0x2 SLOAD DUP2 MSTORE PUSH1 0x20 ADD SWAP1 DUP2 MSTORE PUSH1 0x20 ADD PUSH1 0x0 KECCAK256 PUSH1 0x0 ADD PUSH1 0x0 PUSH2 0x100 EXP DUP2 SLOAD DUP2 PUSH1 0xFF MUL NOT AND SWAP1 DUP4 ISZERO ISZERO MUL OR SWAP1 SSTORE POP PUSH1 0x2 SLOAD DUP4 PUSH1 0x40 MLOAD PUSH2 0xF35 SWAP2 SWAP1 PUSH2 0x35E6 JUMP JUMPDEST PUSH1 0x40 MLOAD DUP1 SWAP2 SUB SWAP1 KECCAK256 DUP5 PUSH1 0x40 MLOAD PUSH2 0xF4B SWAP2 SWAP1 PUSH2 0x35E6 JUMP JUMPDEST PUSH1 0x40 MLOAD DUP1 SWAP2 SUB SWAP1 KECCAK256 PUSH32 0xE834E7E53FCBAC7F32B7F929A458F2A007FFD0002EF4837B2EFC7C55D89BEFC1 PUSH1 0x40 MLOAD PUSH1 0x40 MLOAD DUP1 SWAP2 SUB SWAP1 LOG4 PUSH1 0x2 PUSH1 0x0 DUP2 SLOAD DUP1 SWAP3 SWAP2 SWAP1 PUSH2 0xF92 SWAP1 PUSH2 0x3BAA JUMP JUMPDEST SWAP2 SWAP1 POP SSTORE POP POP POP POP POP JUMP JUMPDEST DUP1 PUSH1 0x0 PUSH1 0x1 PUSH1 0x0 DUP4 DUP2 MSTORE PUSH1 0x20 ADD SWAP1 DUP2 MSTORE PUSH1 0x20 ADD PUSH1 0x0 KECCAK256 PUSH1 0x1 ADD DUP1 SLOAD PUSH2 0xFC1 SWAP1 PUSH2 0x3B47 JUMP JUMPDEST DUP1 PUSH1 0x1F ADD PUSH1 0x20 DUP1 SWAP2 DIV MUL PUSH1 0x20 ADD PUSH1 0x40 MLOAD SWAP1 DUP2 ADD PUSH1 0x40 MSTORE DUP1 SWAP3 SWAP2 SWAP1 DUP2 DUP2 MSTORE PUSH1 0x20 ADD DUP3 DUP1 SLOAD PUSH2 0xFED SWAP1 PUSH2 0x3B47 JUMP JUMPDEST DUP1 ISZERO PUSH2 0x103A JUMPI DUP1 PUSH1 0x1F LT PUSH2 0x100F JUMPI PUSH2 0x100 DUP1 DUP4 SLOAD DIV MUL DUP4 MSTORE SWAP2 PUSH1 0x20 ADD SWAP2 PUSH2 0x103A JUMP JUMPDEST DUP3 ADD SWAP2 SWAP1 PUSH1 0x0 MSTORE PUSH1 0x20 PUSH1 0x0 KECCAK256 SWAP1 JUMPDEST DUP2 SLOAD DUP2 MSTORE SWAP1 PUSH1 0x1 ADD SWAP1 PUSH1 0x20 ADD DUP1 DUP4 GT PUSH2 0x101D JUMPI DUP3 SWAP1 SUB PUSH1 0x1F AND DUP3 ADD SWAP2 JUMPDEST POP POP POP POP POP SWAP1 POP PUSH1 0x0 DUP2 MLOAD GT PUSH2 0x1085 JUMPI PUSH1 0x40 MLOAD PUSH32 0x8C379A000000000000000000000000000000000000000000000000000000000 DUP2 MSTORE PUSH1 0x4 ADD PUSH2 0x107C SWAP1 PUSH2 0x375B JUMP JUMPDEST PUSH1 0x40 MLOAD DUP1 SWAP2 SUB SWAP1 REVERT JUMPDEST DUP3 PUSH1 0x1 PUSH1 0x0 DUP3 DUP2 MSTORE PUSH1 0x20 ADD SWAP1 DUP2 MSTORE PUSH1 0x20 ADD PUSH1 0x0 KECCAK256 PUSH1 0x0 ADD PUSH1 0x1 SWAP1 SLOAD SWAP1 PUSH2 0x100 EXP SWAP1 DIV PUSH1 0xFF AND PUSH2 0x10E9 JUMPI PUSH1 0x40 MLOAD PUSH32 0x8C379A000000000000000000000000000000000000000000000000000000000 DUP2 MSTORE PUSH1 0x4 ADD PUSH2 0x10E0 SWAP1 PUSH2 0x37BB JUMP JUMPDEST PUSH1 0x40 MLOAD DUP1 SWAP2 SUB SWAP1 REVERT JUMPDEST PUSH1 0x0 PUSH1 0x1 PUSH1 0x0 DUP4 DUP2 MSTORE PUSH1 0x20 ADD SWAP1 DUP2 MSTORE PUSH1 0x20 ADD PUSH1 0x0 KECCAK256 PUSH1 0x6 ADD PUSH1 0x0 CALLER PUSH20 0xFFFFFFFFFFFFFFFFFFFFFFFFFFFFFFFFFFFFFFFF AND PUSH20 0xFFFFFFFFFFFFFFFFFFFFFFFFFFFFFFFFFFFFFFFF AND DUP2 MSTORE PUSH1 0x20 ADD SWAP1 DUP2 MSTORE PUSH1 0x20 ADD PUSH1 0x0 KECCAK256 SLOAD GT DUP1 PUSH2 0x119E JUMPI POP PUSH1 0x0 PUSH1 0x1 PUSH1 0x0 DUP4 DUP2 MSTORE PUSH1 0x20 ADD SWAP1 DUP2 MSTORE PUSH1 0x20 ADD PUSH1 0x0 KECCAK256 PUSH1 0x7 ADD PUSH1 0x0 CALLER PUSH20 0xFFFFFFFFFFFFFFFFFFFFFFFFFFFFFFFFFFFFFFFF AND PUSH20 0xFFFFFFFFFFFFFFFFFFFFFFFFFFFFFFFFFFFFFFFF AND DUP2 MSTORE PUSH1 0x20 ADD SWAP1 DUP2 MSTORE PUSH1 0x20 ADD PUSH1 0x0 KECCAK256 SLOAD GT JUMPDEST PUSH2 0x11DD JUMPI PUSH1 0x40 MLOAD PUSH32 0x8C379A000000000000000000000000000000000000000000000000000000000 DUP2 MSTORE PUSH1 0x4 ADD PUSH2 0x11D4 SWAP1 PUSH2 0x36FB JUMP JUMPDEST PUSH1 0x40 MLOAD DUP1 SWAP2 SUB SWAP1 REVERT JUMPDEST PUSH1 0x1 PUSH1 0x0 DUP6 DUP2 MSTORE PUSH1 0x20 ADD SWAP1 DUP2 MSTORE PUSH1 0x20 ADD PUSH1 0x0 KECCAK256 PUSH1 0x3 ADD PUSH1 0x1 SWAP1 SLOAD SWAP1 PUSH2 0x100 EXP SWAP1 DIV PUSH1 0xFF AND PUSH1 0xFF AND PUSH1 0x1 PUSH1 0x0 DUP7 DUP2 MSTORE PUSH1 0x20 ADD SWAP1 DUP2 MSTORE PUSH1 0x20 ADD PUSH1 0x0 KECCAK256 PUSH1 0x3 ADD PUSH1 0x0 SWAP1 SLOAD SWAP1 PUSH2 0x100 EXP SWAP1 DIV PUSH1 0xFF AND PUSH1 0xFF AND LT ISZERO PUSH1 0x1 PUSH1 0x0 DUP7 DUP2 MSTORE PUSH1 0x20 ADD SWAP1 DUP2 MSTORE PUSH1 0x20 ADD PUSH1 0x0 KECCAK256 PUSH1 0x2 ADD PUSH1 0x40 MLOAD PUSH1 0x20 ADD PUSH2 0x1253 SWAP2 SWAP1 PUSH2 0x3614 JUMP JUMPDEST PUSH1 0x40 MLOAD PUSH1 0x20 DUP2 DUP4 SUB SUB DUP2 MSTORE SWAP1 PUSH1 0x40 MSTORE SWAP1 PUSH2 0x12A3 JUMPI PUSH1 0x40 MLOAD PUSH32 0x8C379A000000000000000000000000000000000000000000000000000000000 DUP2 MSTORE PUSH1 0x4 ADD PUSH2 0x129A SWAP2 SWAP1 PUSH2 0x36B9 JUMP JUMPDEST PUSH1 0x40 MLOAD DUP1 SWAP2 SUB SWAP1 REVERT JUMPDEST POP PUSH1 0x0 PUSH1 0x1 PUSH1 0x0 DUP7 DUP2 MSTORE PUSH1 0x20 ADD SWAP1 DUP2 MSTORE PUSH1 0x20 ADD PUSH1 0x0 KECCAK256 PUSH1 0x6 ADD PUSH1 0x0 CALLER PUSH20 0xFFFFFFFFFFFFFFFFFFFFFFFFFFFFFFFFFFFFFFFF AND PUSH20 0xFFFFFFFFFFFFFFFFFFFFFFFFFFFFFFFFFFFFFFFF AND DUP2 MSTORE PUSH1 0x20 ADD SWAP1 DUP2 MSTORE PUSH1 0x20 ADD PUSH1 0x0 KECCAK256 SLOAD GT PUSH2 0x133A JUMPI PUSH1 0x40 MLOAD PUSH32 0x8C379A000000000000000000000000000000000000000000000000000000000 DUP2 MSTORE PUSH1 0x4 ADD PUSH2 0x1331 SWAP1 PUSH2 0x377B JUMP JUMPDEST PUSH1 0x40 MLOAD DUP1 SWAP2 SUB SWAP1 REVERT JUMPDEST PUSH1 0x0 PUSH1 0x1 PUSH1 0x0 DUP7 DUP2 MSTORE PUSH1 0x20 ADD SWAP1 DUP2 MSTORE PUSH1 0x20 ADD PUSH1 0x0 KECCAK256 PUSH1 0x6 ADD PUSH1 0x0 CALLER PUSH20 0xFFFFFFFFFFFFFFFFFFFFFFFFFFFFFFFFFFFFFFFF AND PUSH20 0xFFFFFFFFFFFFFFFFFFFFFFFFFFFFFFFFFFFFFFFF AND DUP2 MSTORE PUSH1 0x20 ADD SWAP1 DUP2 MSTORE PUSH1 0x20 ADD PUSH1 0x0 KECCAK256 SLOAD SWAP1 POP PUSH1 0x1 PUSH1 0x0 DUP7 DUP2 MSTORE PUSH1 0x20 ADD SWAP1 DUP2 MSTORE PUSH1 0x20 ADD PUSH1 0x0 KECCAK256 PUSH1 0x3 ADD PUSH1 0x1 SWAP1 SLOAD SWAP1 PUSH2 0x100 EXP SWAP1 DIV PUSH1 0xFF AND PUSH1 0xFF AND PUSH1 0x1 PUSH1 0x0 DUP8 DUP2 MSTORE PUSH1 0x20 ADD SWAP1 DUP2 MSTORE PUSH1 0x20 ADD PUSH1 0x0 KECCAK256 PUSH1 0x3 ADD PUSH1 0x0 SWAP1 SLOAD SWAP1 PUSH2 0x100 EXP SWAP1 DIV PUSH1 0xFF AND PUSH1 0xFF AND GT ISZERO PUSH2 0x1623 JUMPI PUSH1 0x0 PUSH1 0x1 PUSH1 0x0 DUP8 DUP2 MSTORE PUSH1 0x20 ADD SWAP1 DUP2 MSTORE PUSH1 0x20 ADD PUSH1 0x0 KECCAK256 PUSH1 0x4 ADD SLOAD PUSH8 0xDE0B6B3A7640000 DUP4 PUSH2 0x1413 SWAP2 SWAP1 PUSH2 0x3A22 JUMP JUMPDEST PUSH2 0x141D SWAP2 SWAP1 PUSH2 0x39F1 JUMP JUMPDEST SWAP1 POP PUSH1 0x0 PUSH1 0x1 PUSH1 0x0 DUP9 DUP2 MSTORE PUSH1 0x20 ADD SWAP1 DUP2 MSTORE PUSH1 0x20 ADD PUSH1 0x0 KECCAK256 PUSH1 0x6 ADD PUSH1 0x0 CALLER PUSH20 0xFFFFFFFFFFFFFFFFFFFFFFFFFFFFFFFFFFFFFFFF AND PUSH20 0xFFFFFFFFFFFFFFFFFFFFFFFFFFFFFFFFFFFFFFFF AND DUP2 MSTORE PUSH1 0x20 ADD SWAP1 DUP2 MSTORE PUSH1 0x20 ADD PUSH1 0x0 KECCAK256 SLOAD PUSH8 0xDE0B6B3A7640000 PUSH1 0x1 PUSH1 0x0 DUP11 DUP2 MSTORE PUSH1 0x20 ADD SWAP1 DUP2 MSTORE PUSH1 0x20 ADD PUSH1 0x0 KECCAK256 PUSH1 0x5 ADD SLOAD DUP5 PUSH2 0x14A0 SWAP2 SWAP1 PUSH2 0x3A22 JUMP JUMPDEST PUSH2 0x14AA SWAP2 SWAP1 PUSH2 0x39F1 JUMP JUMPDEST PUSH2 0x14B4 SWAP2 SWAP1 PUSH2 0x399B JUMP JUMPDEST SWAP1 POP PUSH1 0x0 PUSH2 0x3E8 DUP3 PUSH2 0x14C6 SWAP2 SWAP1 PUSH2 0x39F1 JUMP JUMPDEST SWAP1 POP DUP1 PUSH1 0x4 PUSH1 0x0 DUP3 DUP3 SLOAD PUSH2 0x14DA SWAP2 SWAP1 PUSH2 0x399B JUMP JUMPDEST SWAP3 POP POP DUP2 SWAP1 SSTORE POP CALLER PUSH20 0xFFFFFFFFFFFFFFFFFFFFFFFFFFFFFFFFFFFFFFFF AND PUSH2 0x8FC DUP3 DUP5 PUSH2 0x1507 SWAP2 SWAP1 PUSH2 0x3A7C JUMP JUMPDEST SWAP1 DUP2 ISZERO MUL SWAP1 PUSH1 0x40 MLOAD PUSH1 0x0 PUSH1 0x40 MLOAD DUP1 DUP4 SUB DUP2 DUP6 DUP9 DUP9 CALL SWAP4 POP POP POP POP ISZERO DUP1 ISZERO PUSH2 0x1532 JUMPI RETURNDATASIZE PUSH1 0x0 DUP1 RETURNDATACOPY RETURNDATASIZE PUSH1 0x0 REVERT JUMPDEST POP PUSH1 0x0 PUSH1 0x1 PUSH1 0x0 DUP11 DUP2 MSTORE PUSH1 0x20 ADD SWAP1 DUP2 MSTORE PUSH1 0x20 ADD PUSH1 0x0 KECCAK256 PUSH1 0x6 ADD PUSH1 0x0 CALLER PUSH20 0xFFFFFFFFFFFFFFFFFFFFFFFFFFFFFFFFFFFFFFFF AND PUSH20 0xFFFFFFFFFFFFFFFFFFFFFFFFFFFFFFFFFFFFFFFF AND DUP2 MSTORE PUSH1 0x20 ADD SWAP1 DUP2 MSTORE PUSH1 0x20 ADD PUSH1 0x0 KECCAK256 DUP2 SWAP1 SSTORE POP PUSH1 0x1 PUSH1 0x0 DUP10 DUP2 MSTORE PUSH1 0x20 ADD SWAP1 DUP2 MSTORE PUSH1 0x20 ADD PUSH1 0x0 KECCAK256 PUSH1 0x1 ADD PUSH1 0x40 MLOAD PUSH2 0x15AF SWAP2 SWAP1 PUSH2 0x35FD JUMP JUMPDEST PUSH1 0x40 MLOAD DUP1 SWAP2 SUB SWAP1 KECCAK256 CALLER PUSH20 0xFFFFFFFFFFFFFFFFFFFFFFFFFFFFFFFFFFFFFFFF AND DUP10 PUSH32 0x332DFEE3F310B4FDAE7119D52DBE5C6AEB187E7256D13AFA5010380644134257 DUP5 DUP7 PUSH2 0x15FC SWAP2 SWAP1 PUSH2 0x3A7C JUMP JUMPDEST PUSH2 0x1605 DUP14 PUSH2 0x2ED7 JUMP JUMPDEST PUSH1 0x40 MLOAD PUSH2 0x1613 SWAP3 SWAP2 SWAP1 PUSH2 0x3856 JUMP JUMPDEST PUSH1 0x40 MLOAD DUP1 SWAP2 SUB SWAP1 LOG4 POP POP POP PUSH2 0x16EF JUMP JUMPDEST CALLER PUSH20 0xFFFFFFFFFFFFFFFFFFFFFFFFFFFFFFFFFFFFFFFF AND PUSH2 0x8FC DUP3 SWAP1 DUP2 ISZERO MUL SWAP1 PUSH1 0x40 MLOAD PUSH1 0x0 PUSH1 0x40 MLOAD DUP1 DUP4 SUB DUP2 DUP6 DUP9 DUP9 CALL SWAP4 POP POP POP POP ISZERO DUP1 ISZERO PUSH2 0x1669 JUMPI RETURNDATASIZE PUSH1 0x0 DUP1 RETURNDATACOPY RETURNDATASIZE PUSH1 0x0 REVERT JUMPDEST POP PUSH1 0x1 PUSH1 0x0 DUP7 DUP2 MSTORE PUSH1 0x20 ADD SWAP1 DUP2 MSTORE PUSH1 0x20 ADD PUSH1 0x0 KECCAK256 PUSH1 0x1 ADD PUSH1 0x40 MLOAD PUSH2 0x168D SWAP2 SWAP1 PUSH2 0x35FD JUMP JUMPDEST PUSH1 0x40 MLOAD DUP1 SWAP2 SUB SWAP1 KECCAK256 CALLER PUSH20 0xFFFFFFFFFFFFFFFFFFFFFFFFFFFFFFFFFFFFFFFF AND DUP7 PUSH32 0x332DFEE3F310B4FDAE7119D52DBE5C6AEB187E7256D13AFA5010380644134257 DUP5 PUSH2 0x16D8 DUP11 PUSH2 0x2ED7 JUMP JUMPDEST PUSH1 0x40 MLOAD PUSH2 0x16E6 SWAP3 SWAP2 SWAP1 PUSH2 0x3856 JUMP JUMPDEST PUSH1 0x40 MLOAD DUP1 SWAP2 SUB SWAP1 LOG4 JUMPDEST POP POP POP POP POP JUMP JUMPDEST PUSH1 0x0 DUP2 PUSH1 0x0 PUSH1 0x1 PUSH1 0x0 DUP4 DUP2 MSTORE PUSH1 0x20 ADD SWAP1 DUP2 MSTORE PUSH1 0x20 ADD PUSH1 0x0 KECCAK256 PUSH1 0x1 ADD DUP1 SLOAD PUSH2 0x171C SWAP1 PUSH2 0x3B47 JUMP JUMPDEST DUP1 PUSH1 0x1F ADD PUSH1 0x20 DUP1 SWAP2 DIV MUL PUSH1 0x20 ADD PUSH1 0x40 MLOAD SWAP1 DUP2 ADD PUSH1 0x40 MSTORE DUP1 SWAP3 SWAP2 SWAP1 DUP2 DUP2 MSTORE PUSH1 0x20 ADD DUP3 DUP1 SLOAD PUSH2 0x1748 SWAP1 PUSH2 0x3B47 JUMP JUMPDEST DUP1 ISZERO PUSH2 0x1795 JUMPI DUP1 PUSH1 0x1F LT PUSH2 0x176A JUMPI PUSH2 0x100 DUP1 DUP4 SLOAD DIV MUL DUP4 MSTORE SWAP2 PUSH1 0x20 ADD SWAP2 PUSH2 0x1795 JUMP JUMPDEST DUP3 ADD SWAP2 SWAP1 PUSH1 0x0 MSTORE PUSH1 0x20 PUSH1 0x0 KECCAK256 SWAP1 JUMPDEST DUP2 SLOAD DUP2 MSTORE SWAP1 PUSH1 0x1 ADD SWAP1 PUSH1 0x20 ADD DUP1 DUP4 GT PUSH2 0x1778 JUMPI DUP3 SWAP1 SUB PUSH1 0x1F AND DUP3 ADD SWAP2 JUMPDEST POP POP POP POP POP SWAP1 POP PUSH1 0x0 DUP2 MLOAD GT PUSH2 0x17E0 JUMPI PUSH1 0x40 MLOAD PUSH32 0x8C379A000000000000000000000000000000000000000000000000000000000 DUP2 MSTORE PUSH1 0x4 ADD PUSH2 0x17D7 SWAP1 PUSH2 0x375B JUMP JUMPDEST PUSH1 0x40 MLOAD DUP1 SWAP2 SUB SWAP1 REVERT JUMPDEST PUSH1 0x0 PUSH1 0x1 PUSH1 0x0 DUP7 DUP2 MSTORE PUSH1 0x20 ADD SWAP1 DUP2 MSTORE PUSH1 0x20 ADD PUSH1 0x0 KECCAK256 PUSH1 0x6 ADD PUSH1 0x0 CALLER PUSH20 0xFFFFFFFFFFFFFFFFFFFFFFFFFFFFFFFFFFFFFFFF AND PUSH20 0xFFFFFFFFFFFFFFFFFFFFFFFFFFFFFFFFFFFFFFFF AND DUP2 MSTORE PUSH1 0x20 ADD SWAP1 DUP2 MSTORE PUSH1 0x20 ADD PUSH1 0x0 KECCAK256 SLOAD EQ ISZERO PUSH2 0x1845 JUMPI PUSH1 0x0 SWAP3 POP PUSH2 0x1910 JUMP JUMPDEST PUSH1 0x0 PUSH1 0x1 PUSH1 0x0 DUP7 DUP2 MSTORE PUSH1 0x20 ADD SWAP1 DUP2 MSTORE PUSH1 0x20 ADD PUSH1 0x0 KECCAK256 PUSH1 0x6 ADD PUSH1 0x0 CALLER PUSH20 0xFFFFFFFFFFFFFFFFFFFFFFFFFFFFFFFFFFFFFFFF AND PUSH20 0xFFFFFFFFFFFFFFFFFFFFFFFFFFFFFFFFFFFFFFFF AND DUP2 MSTORE PUSH1 0x20 ADD SWAP1 DUP2 MSTORE PUSH1 0x20 ADD PUSH1 0x0 KECCAK256 SLOAD SWAP1 POP PUSH1 0x0 PUSH1 0x1 PUSH1 0x0 DUP8 DUP2 MSTORE PUSH1 0x20 ADD SWAP1 DUP2 MSTORE PUSH1 0x20 ADD PUSH1 0x0 KECCAK256 PUSH1 0x4 ADD SLOAD PUSH8 0xDE0B6B3A7640000 DUP4 PUSH2 0x18CA SWAP2 SWAP1 PUSH2 0x3A22 JUMP JUMPDEST PUSH2 0x18D4 SWAP2 SWAP1 PUSH2 0x39F1 JUMP JUMPDEST SWAP1 POP PUSH8 0xDE0B6B3A7640000 PUSH1 0x1 PUSH1 0x0 DUP9 DUP2 MSTORE PUSH1 0x20 ADD SWAP1 DUP2 MSTORE PUSH1 0x20 ADD PUSH1 0x0 KECCAK256 PUSH1 0x5 ADD SLOAD DUP3 PUSH2 0x1901 SWAP2 SWAP1 PUSH2 0x3A22 JUMP JUMPDEST PUSH2 0x190B SWAP2 SWAP1 PUSH2 0x39F1 JUMP JUMPDEST SWAP5 POP POP POP JUMPDEST POP POP SWAP2 SWAP1 POP JUMP JUMPDEST PUSH1 0x0 DUP2 PUSH1 0x0 PUSH1 0x1 PUSH1 0x0 DUP4 DUP2 MSTORE PUSH1 0x20 ADD SWAP1 DUP2 MSTORE PUSH1 0x20 ADD PUSH1 0x0 KECCAK256 PUSH1 0x1 ADD DUP1 SLOAD PUSH2 0x193D SWAP1 PUSH2 0x3B47 JUMP JUMPDEST DUP1 PUSH1 0x1F ADD PUSH1 0x20 DUP1 SWAP2 DIV MUL PUSH1 0x20 ADD PUSH1 0x40 MLOAD SWAP1 DUP2 ADD PUSH1 0x40 MSTORE DUP1 SWAP3 SWAP2 SWAP1 DUP2 DUP2 MSTORE PUSH1 0x20 ADD DUP3 DUP1 SLOAD PUSH2 0x1969 SWAP1 PUSH2 0x3B47 JUMP JUMPDEST DUP1 ISZERO PUSH2 0x19B6 JUMPI DUP1 PUSH1 0x1F LT PUSH2 0x198B JUMPI PUSH2 0x100 DUP1 DUP4 SLOAD DIV MUL DUP4 MSTORE SWAP2 PUSH1 0x20 ADD SWAP2 PUSH2 0x19B6 JUMP JUMPDEST DUP3 ADD SWAP2 SWAP1 PUSH1 0x0 MSTORE PUSH1 0x20 PUSH1 0x0 KECCAK256 SWAP1 JUMPDEST DUP2 SLOAD DUP2 MSTORE SWAP1 PUSH1 0x1 ADD SWAP1 PUSH1 0x20 ADD DUP1 DUP4 GT PUSH2 0x1999 JUMPI DUP3 SWAP1 SUB PUSH1 0x1F AND DUP3 ADD SWAP2 JUMPDEST POP POP POP POP POP SWAP1 POP PUSH1 0x0 DUP2 MLOAD GT PUSH2 0x1A01 JUMPI PUSH1 0x40 MLOAD PUSH32 0x8C379A000000000000000000000000000000000000000000000000000000000 DUP2 MSTORE PUSH1 0x4 ADD PUSH2 0x19F8 SWAP1 PUSH2 0x375B JUMP JUMPDEST PUSH1 0x40 MLOAD DUP1 SWAP2 SUB SWAP1 REVERT JUMPDEST PUSH1 0x1 PUSH1 0x0 DUP6 DUP2 MSTORE PUSH1 0x20 ADD SWAP1 DUP2 MSTORE PUSH1 0x20 ADD PUSH1 0x0 KECCAK256 PUSH1 0x6 ADD PUSH1 0x0 CALLER PUSH20 0xFFFFFFFFFFFFFFFFFFFFFFFFFFFFFFFFFFFFFFFF AND PUSH20 0xFFFFFFFFFFFFFFFFFFFFFFFFFFFFFFFFFFFFFFFF AND DUP2 MSTORE PUSH1 0x20 ADD SWAP1 DUP2 MSTORE PUSH1 0x20 ADD PUSH1 0x0 KECCAK256 SLOAD SWAP3 POP POP POP SWAP2 SWAP1 POP JUMP JUMPDEST DUP1 PUSH1 0x0 PUSH1 0x1 PUSH1 0x0 DUP4 DUP2 MSTORE PUSH1 0x20 ADD SWAP1 DUP2 MSTORE PUSH1 0x20 ADD PUSH1 0x0 KECCAK256 PUSH1 0x1 ADD DUP1 SLOAD PUSH2 0x1A82 SWAP1 PUSH2 0x3B47 JUMP JUMPDEST DUP1 PUSH1 0x1F ADD PUSH1 0x20 DUP1 SWAP2 DIV MUL PUSH1 0x20 ADD PUSH1 0x40 MLOAD SWAP1 DUP2 ADD PUSH1 0x40 MSTORE DUP1 SWAP3 SWAP2 SWAP1 DUP2 DUP2 MSTORE PUSH1 0x20 ADD DUP3 DUP1 SLOAD PUSH2 0x1AAE SWAP1 PUSH2 0x3B47 JUMP JUMPDEST DUP1 ISZERO PUSH2 0x1AFB JUMPI DUP1 PUSH1 0x1F LT PUSH2 0x1AD0 JUMPI PUSH2 0x100 DUP1 DUP4 SLOAD DIV MUL DUP4 MSTORE SWAP2 PUSH1 0x20 ADD SWAP2 PUSH2 0x1AFB JUMP JUMPDEST DUP3 ADD SWAP2 SWAP1 PUSH1 0x0 MSTORE PUSH1 0x20 PUSH1 0x0 KECCAK256 SWAP1 JUMPDEST DUP2 SLOAD DUP2 MSTORE SWAP1 PUSH1 0x1 ADD SWAP1 PUSH1 0x20 ADD DUP1 DUP4 GT PUSH2 0x1ADE JUMPI DUP3 SWAP1 SUB PUSH1 0x1F AND DUP3 ADD SWAP2 JUMPDEST POP POP POP POP POP SWAP1 POP PUSH1 0x0 DUP2 MLOAD GT PUSH2 0x1B46 JUMPI PUSH1 0x40 MLOAD PUSH32 0x8C379A000000000000000000000000000000000000000000000000000000000 DUP2 MSTORE PUSH1 0x4 ADD PUSH2 0x1B3D SWAP1 PUSH2 0x375B JUMP JUMPDEST PUSH1 0x40 MLOAD DUP1 SWAP2 SUB SWAP1 REVERT JUMPDEST DUP3 PUSH1 0x1 PUSH1 0x0 DUP3 DUP2 MSTORE PUSH1 0x20 ADD SWAP1 DUP2 MSTORE PUSH1 0x20 ADD PUSH1 0x0 KECCAK256 PUSH1 0x0 ADD PUSH1 0x0 SWAP1 SLOAD SWAP1 PUSH2 0x100 EXP SWAP1 DIV PUSH1 0xFF AND PUSH2 0x1BAA JUMPI PUSH1 0x40 MLOAD PUSH32 0x8C379A000000000000000000000000000000000000000000000000000000000 DUP2 MSTORE PUSH1 0x4 ADD PUSH2 0x1BA1 SWAP1 PUSH2 0x37FB JUMP JUMPDEST PUSH1 0x40 MLOAD DUP1 SWAP2 SUB SWAP1 REVERT JUMPDEST PUSH1 0x0 CALLVALUE GT PUSH2 0x1BED JUMPI PUSH1 0x40 MLOAD PUSH32 0x8C379A000000000000000000000000000000000000000000000000000000000 DUP2 MSTORE PUSH1 0x4 ADD PUSH2 0x1BE4 SWAP1 PUSH2 0x37DB JUMP JUMPDEST PUSH1 0x40 MLOAD DUP1 SWAP2 SUB SWAP1 REVERT JUMPDEST CALLVALUE PUSH1 0x1 PUSH1 0x0 DUP7 DUP2 MSTORE PUSH1 0x20 ADD SWAP1 DUP2 MSTORE PUSH1 0x20 ADD PUSH1 0x0 KECCAK256 PUSH1 0x5 ADD PUSH1 0x0 DUP3 DUP3 SLOAD PUSH2 0x1C13 SWAP2 SWAP1 PUSH2 0x399B JUMP JUMPDEST SWAP3 POP POP DUP2 SWAP1 SSTORE POP CALLVALUE PUSH1 0x1 PUSH1 0x0 DUP7 DUP2 MSTORE PUSH1 0x20 ADD SWAP1 DUP2 MSTORE PUSH1 0x20 ADD PUSH1 0x0 KECCAK256 PUSH1 0x7 ADD PUSH1 0x0 CALLER PUSH20 0xFFFFFFFFFFFFFFFFFFFFFFFFFFFFFFFFFFFFFFFF AND PUSH20 0xFFFFFFFFFFFFFFFFFFFFFFFFFFFFFFFFFFFFFFFF AND DUP2 MSTORE PUSH1 0x20 ADD SWAP1 DUP2 MSTORE PUSH1 0x20 ADD PUSH1 0x0 KECCAK256 PUSH1 0x0 DUP3 DUP3 SLOAD PUSH2 0x1C7D SWAP2 SWAP1 PUSH2 0x399B JUMP JUMPDEST SWAP3 POP POP DUP2 SWAP1 SSTORE POP PUSH1 0x1 PUSH1 0x0 DUP6 DUP2 MSTORE PUSH1 0x20 ADD SWAP1 DUP2 MSTORE PUSH1 0x20 ADD PUSH1 0x0 KECCAK256 PUSH1 0x2 ADD PUSH1 0x40 MLOAD PUSH2 0x1CA7 SWAP2 SWAP1 PUSH2 0x35FD JUMP JUMPDEST PUSH1 0x40 MLOAD DUP1 SWAP2 SUB SWAP1 KECCAK256 DUP5 PUSH32 0xE929CF23ADA6A724C2DF3B05F4A6508569073E353D7D03873089F77FB5B40B48 PUSH1 0x40 MLOAD PUSH1 0x40 MLOAD DUP1 SWAP2 SUB SWAP1 LOG3 PUSH1 0x3 PUSH1 0x0 SWAP1 SLOAD SWAP1 PUSH2 0x100 EXP SWAP1 DIV PUSH20 0xFFFFFFFFFFFFFFFFFFFFFFFFFFFFFFFFFFFFFFFF AND PUSH20 0xFFFFFFFFFFFFFFFFFFFFFFFFFFFFFFFFFFFFFFFF AND PUSH4 0x23B872DD PUSH1 0x0 DUP1 SLOAD SWAP1 PUSH2 0x100 EXP SWAP1 DIV PUSH20 0xFFFFFFFFFFFFFFFFFFFFFFFFFFFFFFFFFFFFFFFF AND CALLER CALLVALUE PUSH1 0x40 MLOAD DUP5 PUSH4 0xFFFFFFFF AND PUSH1 0xE0 SHL DUP2 MSTORE PUSH1 0x4 ADD PUSH2 0x1D5B SWAP4 SWAP3 SWAP2 SWAP1 PUSH2 0x3636 JUMP JUMPDEST PUSH1 0x20 PUSH1 0x40 MLOAD DUP1 DUP4 SUB DUP2 PUSH1 0x0 DUP8 DUP1 EXTCODESIZE ISZERO DUP1 ISZERO PUSH2 0x1D75 JUMPI PUSH1 0x0 DUP1 REVERT JUMPDEST POP GAS CALL ISZERO DUP1 ISZERO PUSH2 0x1D89 JUMPI RETURNDATASIZE PUSH1 0x0 DUP1 RETURNDATACOPY RETURNDATASIZE PUSH1 0x0 REVERT JUMPDEST POP POP POP POP PUSH1 0x40 MLOAD RETURNDATASIZE PUSH1 0x1F NOT PUSH1 0x1F DUP3 ADD AND DUP3 ADD DUP1 PUSH1 0x40 MSTORE POP DUP2 ADD SWAP1 PUSH2 0x1DAD SWAP2 SWAP1 PUSH2 0x30CF JUMP JUMPDEST POP POP POP POP POP JUMP JUMPDEST PUSH1 0x60 DUP1 PUSH1 0x60 PUSH1 0x0 PUSH1 0x2 SLOAD PUSH8 0xFFFFFFFFFFFFFFFF DUP2 GT ISZERO PUSH2 0x1DD7 JUMPI PUSH2 0x1DD6 PUSH2 0x3CAF JUMP JUMPDEST JUMPDEST PUSH1 0x40 MLOAD SWAP1 DUP1 DUP3 MSTORE DUP1 PUSH1 0x20 MUL PUSH1 0x20 ADD DUP3 ADD PUSH1 0x40 MSTORE DUP1 ISZERO PUSH2 0x1E0A JUMPI DUP2 PUSH1 0x20 ADD JUMPDEST PUSH1 0x60 DUP2 MSTORE PUSH1 0x20 ADD SWAP1 PUSH1 0x1 SWAP1 SUB SWAP1 DUP2 PUSH2 0x1DF5 JUMPI SWAP1 POP JUMPDEST POP SWAP1 POP PUSH1 0x0 PUSH1 0x2 SLOAD PUSH8 0xFFFFFFFFFFFFFFFF DUP2 GT ISZERO PUSH2 0x1E2B JUMPI PUSH2 0x1E2A PUSH2 0x3CAF JUMP JUMPDEST JUMPDEST PUSH1 0x40 MLOAD SWAP1 DUP1 DUP3 MSTORE DUP1 PUSH1 0x20 MUL PUSH1 0x20 ADD DUP3 ADD PUSH1 0x40 MSTORE DUP1 ISZERO PUSH2 0x1E5E JUMPI DUP2 PUSH1 0x20 ADD JUMPDEST PUSH1 0x60 DUP2 MSTORE PUSH1 0x20 ADD SWAP1 PUSH1 0x1 SWAP1 SUB SWAP1 DUP2 PUSH2 0x1E49 JUMPI SWAP1 POP JUMPDEST POP SWAP1 POP PUSH1 0x0 PUSH1 0x2 SLOAD PUSH8 0xFFFFFFFFFFFFFFFF DUP2 GT ISZERO PUSH2 0x1E7F JUMPI PUSH2 0x1E7E PUSH2 0x3CAF JUMP JUMPDEST JUMPDEST PUSH1 0x40 MLOAD SWAP1 DUP1 DUP3 MSTORE DUP1 PUSH1 0x20 MUL PUSH1 0x20 ADD DUP3 ADD PUSH1 0x40 MSTORE DUP1 ISZERO PUSH2 0x1EAD JUMPI DUP2 PUSH1 0x20 ADD PUSH1 0x20 DUP3 MUL DUP1 CALLDATASIZE DUP4 CALLDATACOPY DUP1 DUP3 ADD SWAP2 POP POP SWAP1 POP JUMPDEST POP SWAP1 POP PUSH1 0x0 DUP1 PUSH1 0x0 SWAP1 POP JUMPDEST PUSH1 0x2 SLOAD DUP2 LT ISZERO PUSH2 0x20A7 JUMPI PUSH1 0x1 PUSH1 0x0 DUP3 DUP2 MSTORE PUSH1 0x20 ADD SWAP1 DUP2 MSTORE PUSH1 0x20 ADD PUSH1 0x0 KECCAK256 PUSH1 0x0 ADD PUSH1 0x0 SWAP1 SLOAD SWAP1 PUSH2 0x100 EXP SWAP1 DIV PUSH1 0xFF AND ISZERO PUSH2 0x2094 JUMPI PUSH1 0x1 PUSH1 0x0 DUP3 DUP2 MSTORE PUSH1 0x20 ADD SWAP1 DUP2 MSTORE PUSH1 0x20 ADD PUSH1 0x0 KECCAK256 PUSH1 0x1 ADD DUP1 SLOAD PUSH2 0x1F0C SWAP1 PUSH2 0x3B47 JUMP JUMPDEST DUP1 PUSH1 0x1F ADD PUSH1 0x20 DUP1 SWAP2 DIV MUL PUSH1 0x20 ADD PUSH1 0x40 MLOAD SWAP1 DUP2 ADD PUSH1 0x40 MSTORE DUP1 SWAP3 SWAP2 SWAP1 DUP2 DUP2 MSTORE PUSH1 0x20 ADD DUP3 DUP1 SLOAD PUSH2 0x1F38 SWAP1 PUSH2 0x3B47 JUMP JUMPDEST DUP1 ISZERO PUSH2 0x1F85 JUMPI DUP1 PUSH1 0x1F LT PUSH2 0x1F5A JUMPI PUSH2 0x100 DUP1 DUP4 SLOAD DIV MUL DUP4 MSTORE SWAP2 PUSH1 0x20 ADD SWAP2 PUSH2 0x1F85 JUMP JUMPDEST DUP3 ADD SWAP2 SWAP1 PUSH1 0x0 MSTORE PUSH1 0x20 PUSH1 0x0 KECCAK256 SWAP1 JUMPDEST DUP2 SLOAD DUP2 MSTORE SWAP1 PUSH1 0x1 ADD SWAP1 PUSH1 0x20 ADD DUP1 DUP4 GT PUSH2 0x1F68 JUMPI DUP3 SWAP1 SUB PUSH1 0x1F AND DUP3 ADD SWAP2 JUMPDEST POP POP POP POP POP DUP6 DUP4 DUP2 MLOAD DUP2 LT PUSH2 0x1F9D JUMPI PUSH2 0x1F9C PUSH2 0x3C80 JUMP JUMPDEST JUMPDEST PUSH1 0x20 MUL PUSH1 0x20 ADD ADD DUP2 SWAP1 MSTORE POP PUSH1 0x1 PUSH1 0x0 DUP3 DUP2 MSTORE PUSH1 0x20 ADD SWAP1 DUP2 MSTORE PUSH1 0x20 ADD PUSH1 0x0 KECCAK256 PUSH1 0x2 ADD DUP1 SLOAD PUSH2 0x1FC9 SWAP1 PUSH2 0x3B47 JUMP JUMPDEST DUP1 PUSH1 0x1F ADD PUSH1 0x20 DUP1 SWAP2 DIV MUL PUSH1 0x20 ADD PUSH1 0x40 MLOAD SWAP1 DUP2 ADD PUSH1 0x40 MSTORE DUP1 SWAP3 SWAP2 SWAP1 DUP2 DUP2 MSTORE PUSH1 0x20 ADD DUP3 DUP1 SLOAD PUSH2 0x1FF5 SWAP1 PUSH2 0x3B47 JUMP JUMPDEST DUP1 ISZERO PUSH2 0x2042 JUMPI DUP1 PUSH1 0x1F LT PUSH2 0x2017 JUMPI PUSH2 0x100 DUP1 DUP4 SLOAD DIV MUL DUP4 MSTORE SWAP2 PUSH1 0x20 ADD SWAP2 PUSH2 0x2042 JUMP JUMPDEST DUP3 ADD SWAP2 SWAP1 PUSH1 0x0 MSTORE PUSH1 0x20 PUSH1 0x0 KECCAK256 SWAP1 JUMPDEST DUP2 SLOAD DUP2 MSTORE SWAP1 PUSH1 0x1 ADD SWAP1 PUSH1 0x20 ADD DUP1 DUP4 GT PUSH2 0x2025 JUMPI DUP3 SWAP1 SUB PUSH1 0x1F AND DUP3 ADD SWAP2 JUMPDEST POP POP POP POP POP DUP5 DUP4 DUP2 MLOAD DUP2 LT PUSH2 0x205A JUMPI PUSH2 0x2059 PUSH2 0x3C80 JUMP JUMPDEST JUMPDEST PUSH1 0x20 MUL PUSH1 0x20 ADD ADD DUP2 SWAP1 MSTORE POP DUP1 DUP4 DUP4 DUP2 MLOAD DUP2 LT PUSH2 0x2079 JUMPI PUSH2 0x2078 PUSH2 0x3C80 JUMP JUMPDEST JUMPDEST PUSH1 0x20 MUL PUSH1 0x20 ADD ADD DUP2 DUP2 MSTORE POP POP DUP2 DUP1 PUSH2 0x2090 SWAP1 PUSH2 0x3BAA JUMP JUMPDEST SWAP3 POP POP JUMPDEST DUP1 DUP1 PUSH2 0x209F SWAP1 PUSH2 0x3BAA JUMP JUMPDEST SWAP2 POP POP PUSH2 0x1EB8 JUMP JUMPDEST POP DUP4 DUP4 DUP4 SWAP7 POP SWAP7 POP SWAP7 POP POP POP POP POP SWAP1 SWAP2 SWAP3 JUMP JUMPDEST DUP1 PUSH1 0x0 PUSH1 0x1 PUSH1 0x0 DUP4 DUP2 MSTORE PUSH1 0x20 ADD SWAP1 DUP2 MSTORE PUSH1 0x20 ADD PUSH1 0x0 KECCAK256 PUSH1 0x1 ADD DUP1 SLOAD PUSH2 0x20DE SWAP1 PUSH2 0x3B47 JUMP JUMPDEST DUP1 PUSH1 0x1F ADD PUSH1 0x20 DUP1 SWAP2 DIV MUL PUSH1 0x20 ADD PUSH1 0x40 MLOAD SWAP1 DUP2 ADD PUSH1 0x40 MSTORE DUP1 SWAP3 SWAP2 SWAP1 DUP2 DUP2 MSTORE PUSH1 0x20 ADD DUP3 DUP1 SLOAD PUSH2 0x210A SWAP1 PUSH2 0x3B47 JUMP JUMPDEST DUP1 ISZERO PUSH2 0x2157 JUMPI DUP1 PUSH1 0x1F LT PUSH2 0x212C JUMPI PUSH2 0x100 DUP1 DUP4 SLOAD DIV MUL DUP4 MSTORE SWAP2 PUSH1 0x20 ADD SWAP2 PUSH2 0x2157 JUMP JUMPDEST DUP3 ADD SWAP2 SWAP1 PUSH1 0x0 MSTORE PUSH1 0x20 PUSH1 0x0 KECCAK256 SWAP1 JUMPDEST DUP2 SLOAD DUP2 MSTORE SWAP1 PUSH1 0x1 ADD SWAP1 PUSH1 0x20 ADD DUP1 DUP4 GT PUSH2 0x213A JUMPI DUP3 SWAP1 SUB PUSH1 0x1F AND DUP3 ADD SWAP2 JUMPDEST POP POP POP POP POP SWAP1 POP PUSH1 0x0 DUP2 MLOAD GT PUSH2 0x21A2 JUMPI PUSH1 0x40 MLOAD PUSH32 0x8C379A000000000000000000000000000000000000000000000000000000000 DUP2 MSTORE PUSH1 0x4 ADD PUSH2 0x2199 SWAP1 PUSH2 0x375B JUMP JUMPDEST PUSH1 0x40 MLOAD DUP1 SWAP2 SUB SWAP1 REVERT JUMPDEST DUP3 PUSH1 0x1 PUSH1 0x0 DUP3 DUP2 MSTORE PUSH1 0x20 ADD SWAP1 DUP2 MSTORE PUSH1 0x20 ADD PUSH1 0x0 KECCAK256 PUSH1 0x0 ADD PUSH1 0x1 SWAP1 SLOAD SWAP1 PUSH2 0x100 EXP SWAP1 DIV PUSH1 0xFF AND PUSH2 0x2206 JUMPI PUSH1 0x40 MLOAD PUSH32 0x8C379A000000000000000000000000000000000000000000000000000000000 DUP2 MSTORE PUSH1 0x4 ADD PUSH2 0x21FD SWAP1 PUSH2 0x37BB JUMP JUMPDEST PUSH1 0x40 MLOAD DUP1 SWAP2 SUB SWAP1 REVERT JUMPDEST PUSH1 0x0 PUSH1 0x1 PUSH1 0x0 DUP4 DUP2 MSTORE PUSH1 0x20 ADD SWAP1 DUP2 MSTORE PUSH1 0x20 ADD PUSH1 0x0 KECCAK256 PUSH1 0x6 ADD PUSH1 0x0 CALLER PUSH20 0xFFFFFFFFFFFFFFFFFFFFFFFFFFFFFFFFFFFFFFFF AND PUSH20 0xFFFFFFFFFFFFFFFFFFFFFFFFFFFFFFFFFFFFFFFF AND DUP2 MSTORE PUSH1 0x20 ADD SWAP1 DUP2 MSTORE PUSH1 0x20 ADD PUSH1 0x0 KECCAK256 SLOAD GT DUP1 PUSH2 0x22BB JUMPI POP PUSH1 0x0 PUSH1 0x1 PUSH1 0x0 DUP4 DUP2 MSTORE PUSH1 0x20 ADD SWAP1 DUP2 MSTORE PUSH1 0x20 ADD PUSH1 0x0 KECCAK256 PUSH1 0x7 ADD PUSH1 0x0 CALLER PUSH20 0xFFFFFFFFFFFFFFFFFFFFFFFFFFFFFFFFFFFFFFFF AND PUSH20 0xFFFFFFFFFFFFFFFFFFFFFFFFFFFFFFFFFFFFFFFF AND DUP2 MSTORE PUSH1 0x20 ADD SWAP1 DUP2 MSTORE PUSH1 0x20 ADD PUSH1 0x0 KECCAK256 SLOAD GT JUMPDEST PUSH2 0x22FA JUMPI PUSH1 0x40 MLOAD PUSH32 0x8C379A000000000000000000000000000000000000000000000000000000000 DUP2 MSTORE PUSH1 0x4 ADD PUSH2 0x22F1 SWAP1 PUSH2 0x36FB JUMP JUMPDEST PUSH1 0x40 MLOAD DUP1 SWAP2 SUB SWAP1 REVERT JUMPDEST PUSH1 0x1 PUSH1 0x0 DUP6 DUP2 MSTORE PUSH1 0x20 ADD SWAP1 DUP2 MSTORE PUSH1 0x20 ADD PUSH1 0x0 KECCAK256 PUSH1 0x3 ADD PUSH1 0x0 SWAP1 SLOAD SWAP1 PUSH2 0x100 EXP SWAP1 DIV PUSH1 0xFF AND PUSH1 0xFF AND PUSH1 0x1 PUSH1 0x0 DUP7 DUP2 MSTORE PUSH1 0x20 ADD SWAP1 DUP2 MSTORE PUSH1 0x20 ADD PUSH1 0x0 KECCAK256 PUSH1 0x3 ADD PUSH1 0x1 SWAP1 SLOAD SWAP1 PUSH2 0x100 EXP SWAP1 DIV PUSH1 0xFF AND PUSH1 0xFF AND LT ISZERO PUSH1 0x1 PUSH1 0x0 DUP7 DUP2 MSTORE PUSH1 0x20 ADD SWAP1 DUP2 MSTORE PUSH1 0x20 ADD PUSH1 0x0 KECCAK256 PUSH1 0x1 ADD PUSH1 0x40 MLOAD PUSH1 0x20 ADD PUSH2 0x2370 SWAP2 SWAP1 PUSH2 0x3614 JUMP JUMPDEST PUSH1 0x40 MLOAD PUSH1 0x20 DUP2 DUP4 SUB SUB DUP2 MSTORE SWAP1 PUSH1 0x40 MSTORE SWAP1 PUSH2 0x23C0 JUMPI PUSH1 0x40 MLOAD PUSH32 0x8C379A000000000000000000000000000000000000000000000000000000000 DUP2 MSTORE PUSH1 0x4 ADD PUSH2 0x23B7 SWAP2 SWAP1 PUSH2 0x36B9 JUMP JUMPDEST PUSH1 0x40 MLOAD DUP1 SWAP2 SUB SWAP1 REVERT JUMPDEST POP PUSH1 0x0 PUSH1 0x1 PUSH1 0x0 DUP7 DUP2 MSTORE PUSH1 0x20 ADD SWAP1 DUP2 MSTORE PUSH1 0x20 ADD PUSH1 0x0 KECCAK256 PUSH1 0x7 ADD PUSH1 0x0 CALLER PUSH20 0xFFFFFFFFFFFFFFFFFFFFFFFFFFFFFFFFFFFFFFFF AND PUSH20 0xFFFFFFFFFFFFFFFFFFFFFFFFFFFFFFFFFFFFFFFF AND DUP2 MSTORE PUSH1 0x20 ADD SWAP1 DUP2 MSTORE PUSH1 0x20 ADD PUSH1 0x0 KECCAK256 SLOAD GT PUSH2 0x2457 JUMPI PUSH1 0x40 MLOAD PUSH32 0x8C379A000000000000000000000000000000000000000000000000000000000 DUP2 MSTORE PUSH1 0x4 ADD PUSH2 0x244E SWAP1 PUSH2 0x377B JUMP JUMPDEST PUSH1 0x40 MLOAD DUP1 SWAP2 SUB SWAP1 REVERT JUMPDEST PUSH1 0x0 PUSH1 0x1 PUSH1 0x0 DUP7 DUP2 MSTORE PUSH1 0x20 ADD SWAP1 DUP2 MSTORE PUSH1 0x20 ADD PUSH1 0x0 KECCAK256 PUSH1 0x7 ADD PUSH1 0x0 CALLER PUSH20 0xFFFFFFFFFFFFFFFFFFFFFFFFFFFFFFFFFFFFFFFF AND PUSH20 0xFFFFFFFFFFFFFFFFFFFFFFFFFFFFFFFFFFFFFFFF AND DUP2 MSTORE PUSH1 0x20 ADD SWAP1 DUP2 MSTORE PUSH1 0x20 ADD PUSH1 0x0 KECCAK256 SLOAD SWAP1 POP PUSH1 0x1 PUSH1 0x0 DUP7 DUP2 MSTORE PUSH1 0x20 ADD SWAP1 DUP2 MSTORE PUSH1 0x20 ADD PUSH1 0x0 KECCAK256 PUSH1 0x3 ADD PUSH1 0x0 SWAP1 SLOAD SWAP1 PUSH2 0x100 EXP SWAP1 DIV PUSH1 0xFF AND PUSH1 0xFF AND PUSH1 0x1 PUSH1 0x0 DUP8 DUP2 MSTORE PUSH1 0x20 ADD SWAP1 DUP2 MSTORE PUSH1 0x20 ADD PUSH1 0x0 KECCAK256 PUSH1 0x3 ADD PUSH1 0x1 SWAP1 SLOAD SWAP1 PUSH2 0x100 EXP SWAP1 DIV PUSH1 0xFF AND PUSH1 0xFF AND GT ISZERO PUSH2 0x2740 JUMPI PUSH1 0x0 PUSH1 0x1 PUSH1 0x0 DUP8 DUP2 MSTORE PUSH1 0x20 ADD SWAP1 DUP2 MSTORE PUSH1 0x20 ADD PUSH1 0x0 KECCAK256 PUSH1 0x5 ADD SLOAD PUSH8 0xDE0B6B3A7640000 DUP4 PUSH2 0x2530 SWAP2 SWAP1 PUSH2 0x3A22 JUMP JUMPDEST PUSH2 0x253A SWAP2 SWAP1 PUSH2 0x39F1 JUMP JUMPDEST SWAP1 POP PUSH1 0x0 PUSH1 0x1 PUSH1 0x0 DUP9 DUP2 MSTORE PUSH1 0x20 ADD SWAP1 DUP2 MSTORE PUSH1 0x20 ADD PUSH1 0x0 KECCAK256 PUSH1 0x7 ADD PUSH1 0x0 CALLER PUSH20 0xFFFFFFFFFFFFFFFFFFFFFFFFFFFFFFFFFFFFFFFF AND PUSH20 0xFFFFFFFFFFFFFFFFFFFFFFFFFFFFFFFFFFFFFFFF AND DUP2 MSTORE PUSH1 0x20 ADD SWAP1 DUP2 MSTORE PUSH1 0x20 ADD PUSH1 0x0 KECCAK256 SLOAD PUSH8 0xDE0B6B3A7640000 PUSH1 0x1 PUSH1 0x0 DUP11 DUP2 MSTORE PUSH1 0x20 ADD SWAP1 DUP2 MSTORE PUSH1 0x20 ADD PUSH1 0x0 KECCAK256 PUSH1 0x4 ADD SLOAD DUP5 PUSH2 0x25BD SWAP2 SWAP1 PUSH2 0x3A22 JUMP JUMPDEST PUSH2 0x25C7 SWAP2 SWAP1 PUSH2 0x39F1 JUMP JUMPDEST PUSH2 0x25D1 SWAP2 SWAP1 PUSH2 0x399B JUMP JUMPDEST SWAP1 POP PUSH1 0x0 PUSH2 0x3E8 DUP3 PUSH2 0x25E3 SWAP2 SWAP1 PUSH2 0x39F1 JUMP JUMPDEST SWAP1 POP DUP1 PUSH1 0x4 PUSH1 0x0 DUP3 DUP3 SLOAD PUSH2 0x25F7 SWAP2 SWAP1 PUSH2 0x399B JUMP JUMPDEST SWAP3 POP POP DUP2 SWAP1 SSTORE POP CALLER PUSH20 0xFFFFFFFFFFFFFFFFFFFFFFFFFFFFFFFFFFFFFFFF AND PUSH2 0x8FC DUP3 DUP5 PUSH2 0x2624 SWAP2 SWAP1 PUSH2 0x3A7C JUMP JUMPDEST SWAP1 DUP2 ISZERO MUL SWAP1 PUSH1 0x40 MLOAD PUSH1 0x0 PUSH1 0x40 MLOAD DUP1 DUP4 SUB DUP2 DUP6 DUP9 DUP9 CALL SWAP4 POP POP POP POP ISZERO DUP1 ISZERO PUSH2 0x264F JUMPI RETURNDATASIZE PUSH1 0x0 DUP1 RETURNDATACOPY RETURNDATASIZE PUSH1 0x0 REVERT JUMPDEST POP PUSH1 0x0 PUSH1 0x1 PUSH1 0x0 DUP11 DUP2 MSTORE PUSH1 0x20 ADD SWAP1 DUP2 MSTORE PUSH1 0x20 ADD PUSH1 0x0 KECCAK256 PUSH1 0x7 ADD PUSH1 0x0 CALLER PUSH20 0xFFFFFFFFFFFFFFFFFFFFFFFFFFFFFFFFFFFFFFFF AND PUSH20 0xFFFFFFFFFFFFFFFFFFFFFFFFFFFFFFFFFFFFFFFF AND DUP2 MSTORE PUSH1 0x20 ADD SWAP1 DUP2 MSTORE PUSH1 0x20 ADD PUSH1 0x0 KECCAK256 DUP2 SWAP1 SSTORE POP PUSH1 0x1 PUSH1 0x0 DUP10 DUP2 MSTORE PUSH1 0x20 ADD SWAP1 DUP2 MSTORE PUSH1 0x20 ADD PUSH1 0x0 KECCAK256 PUSH1 0x2 ADD PUSH1 0x40 MLOAD PUSH2 0x26CC SWAP2 SWAP1 PUSH2 0x35FD JUMP JUMPDEST PUSH1 0x40 MLOAD DUP1 SWAP2 SUB SWAP1 KECCAK256 CALLER PUSH20 0xFFFFFFFFFFFFFFFFFFFFFFFFFFFFFFFFFFFFFFFF AND DUP10 PUSH32 0x332DFEE3F310B4FDAE7119D52DBE5C6AEB187E7256D13AFA5010380644134257 DUP5 DUP7 PUSH2 0x2719 SWAP2 SWAP1 PUSH2 0x3A7C JUMP JUMPDEST PUSH2 0x2722 DUP14 PUSH2 0x2ED7 JUMP JUMPDEST PUSH1 0x40 MLOAD PUSH2 0x2730 SWAP3 SWAP2 SWAP1 PUSH2 0x3856 JUMP JUMPDEST PUSH1 0x40 MLOAD DUP1 SWAP2 SUB SWAP1 LOG4 POP POP POP PUSH2 0x280C JUMP JUMPDEST CALLER PUSH20 0xFFFFFFFFFFFFFFFFFFFFFFFFFFFFFFFFFFFFFFFF AND PUSH2 0x8FC DUP3 SWAP1 DUP2 ISZERO MUL SWAP1 PUSH1 0x40 MLOAD PUSH1 0x0 PUSH1 0x40 MLOAD DUP1 DUP4 SUB DUP2 DUP6 DUP9 DUP9 CALL SWAP4 POP POP POP POP ISZERO DUP1 ISZERO PUSH2 0x2786 JUMPI RETURNDATASIZE PUSH1 0x0 DUP1 RETURNDATACOPY RETURNDATASIZE PUSH1 0x0 REVERT JUMPDEST POP PUSH1 0x1 PUSH1 0x0 DUP7 DUP2 MSTORE PUSH1 0x20 ADD SWAP1 DUP2 MSTORE PUSH1 0x20 ADD PUSH1 0x0 KECCAK256 PUSH1 0x2 ADD PUSH1 0x40 MLOAD PUSH2 0x27AA SWAP2 SWAP1 PUSH2 0x35FD JUMP JUMPDEST PUSH1 0x40 MLOAD DUP1 SWAP2 SUB SWAP1 KECCAK256 CALLER PUSH20 0xFFFFFFFFFFFFFFFFFFFFFFFFFFFFFFFFFFFFFFFF AND DUP7 PUSH32 0x332DFEE3F310B4FDAE7119D52DBE5C6AEB187E7256D13AFA5010380644134257 DUP5 PUSH2 0x27F5 DUP11 PUSH2 0x2ED7 JUMP JUMPDEST PUSH1 0x40 MLOAD PUSH2 0x2803 SWAP3 SWAP2 SWAP1 PUSH2 0x3856 JUMP JUMPDEST PUSH1 0x40 MLOAD DUP1 SWAP2 SUB SWAP1 LOG4 JUMPDEST POP POP POP POP POP JUMP JUMPDEST DUP1 PUSH1 0x0 PUSH1 0x1 PUSH1 0x0 DUP4 DUP2 MSTORE PUSH1 0x20 ADD SWAP1 DUP2 MSTORE PUSH1 0x20 ADD PUSH1 0x0 KECCAK256 PUSH1 0x1 ADD DUP1 SLOAD PUSH2 0x2837 SWAP1 PUSH2 0x3B47 JUMP JUMPDEST DUP1 PUSH1 0x1F ADD PUSH1 0x20 DUP1 SWAP2 DIV MUL PUSH1 0x20 ADD PUSH1 0x40 MLOAD SWAP1 DUP2 ADD PUSH1 0x40 MSTORE DUP1 SWAP3 SWAP2 SWAP1 DUP2 DUP2 MSTORE PUSH1 0x20 ADD DUP3 DUP1 SLOAD PUSH2 0x2863 SWAP1 PUSH2 0x3B47 JUMP JUMPDEST DUP1 ISZERO PUSH2 0x28B0 JUMPI DUP1 PUSH1 0x1F LT PUSH2 0x2885 JUMPI PUSH2 0x100 DUP1 DUP4 SLOAD DIV MUL DUP4 MSTORE SWAP2 PUSH1 0x20 ADD SWAP2 PUSH2 0x28B0 JUMP JUMPDEST DUP3 ADD SWAP2 SWAP1 PUSH1 0x0 MSTORE PUSH1 0x20 PUSH1 0x0 KECCAK256 SWAP1 JUMPDEST DUP2 SLOAD DUP2 MSTORE SWAP1 PUSH1 0x1 ADD SWAP1 PUSH1 0x20 ADD DUP1 DUP4 GT PUSH2 0x2893 JUMPI DUP3 SWAP1 SUB PUSH1 0x1F AND DUP3 ADD SWAP2 JUMPDEST POP POP POP POP POP SWAP1 POP PUSH1 0x0 DUP2 MLOAD GT PUSH2 0x28FB JUMPI PUSH1 0x40 MLOAD PUSH32 0x8C379A000000000000000000000000000000000000000000000000000000000 DUP2 MSTORE PUSH1 0x4 ADD PUSH2 0x28F2 SWAP1 PUSH2 0x375B JUMP JUMPDEST PUSH1 0x40 MLOAD DUP1 SWAP2 SUB SWAP1 REVERT JUMPDEST DUP3 PUSH1 0x1 PUSH1 0x0 DUP3 DUP2 MSTORE PUSH1 0x20 ADD SWAP1 DUP2 MSTORE PUSH1 0x20 ADD PUSH1 0x0 KECCAK256 PUSH1 0x0 ADD PUSH1 0x0 SWAP1 SLOAD SWAP1 PUSH2 0x100 EXP SWAP1 DIV PUSH1 0xFF AND PUSH2 0x295F JUMPI PUSH1 0x40 MLOAD PUSH32 0x8C379A000000000000000000000000000000000000000000000000000000000 DUP2 MSTORE PUSH1 0x4 ADD PUSH2 0x2956 SWAP1 PUSH2 0x37FB JUMP JUMPDEST PUSH1 0x40 MLOAD DUP1 SWAP2 SUB SWAP1 REVERT JUMPDEST PUSH1 0x0 CALLVALUE GT PUSH2 0x29A2 JUMPI PUSH1 0x40 MLOAD PUSH32 0x8C379A000000000000000000000000000000000000000000000000000000000 DUP2 MSTORE PUSH1 0x4 ADD PUSH2 0x2999 SWAP1 PUSH2 0x37DB JUMP JUMPDEST PUSH1 0x40 MLOAD DUP1 SWAP2 SUB SWAP1 REVERT JUMPDEST CALLVALUE PUSH1 0x1 PUSH1 0x0 DUP7 DUP2 MSTORE PUSH1 0x20 ADD SWAP1 DUP2 MSTORE PUSH1 0x20 ADD PUSH1 0x0 KECCAK256 PUSH1 0x4 ADD PUSH1 0x0 DUP3 DUP3 SLOAD PUSH2 0x29C8 SWAP2 SWAP1 PUSH2 0x399B JUMP JUMPDEST SWAP3 POP POP DUP2 SWAP1 SSTORE POP CALLVALUE PUSH1 0x1 PUSH1 0x0 DUP7 DUP2 MSTORE PUSH1 0x20 ADD SWAP1 DUP2 MSTORE PUSH1 0x20 ADD PUSH1 0x0 KECCAK256 PUSH1 0x6 ADD PUSH1 0x0 CALLER PUSH20 0xFFFFFFFFFFFFFFFFFFFFFFFFFFFFFFFFFFFFFFFF AND PUSH20 0xFFFFFFFFFFFFFFFFFFFFFFFFFFFFFFFFFFFFFFFF AND DUP2 MSTORE PUSH1 0x20 ADD SWAP1 DUP2 MSTORE PUSH1 0x20 ADD PUSH1 0x0 KECCAK256 PUSH1 0x0 DUP3 DUP3 SLOAD PUSH2 0x2A32 SWAP2 SWAP1 PUSH2 0x399B JUMP JUMPDEST SWAP3 POP POP DUP2 SWAP1 SSTORE POP PUSH1 0x1 PUSH1 0x0 DUP6 DUP2 MSTORE PUSH1 0x20 ADD SWAP1 DUP2 MSTORE PUSH1 0x20 ADD PUSH1 0x0 KECCAK256 PUSH1 0x1 ADD PUSH1 0x40 MLOAD PUSH2 0x2A5C SWAP2 SWAP1 PUSH2 0x35FD JUMP JUMPDEST PUSH1 0x40 MLOAD DUP1 SWAP2 SUB SWAP1 KECCAK256 DUP5 PUSH32 0xE929CF23ADA6A724C2DF3B05F4A6508569073E353D7D03873089F77FB5B40B48 PUSH1 0x40 MLOAD PUSH1 0x40 MLOAD DUP1 SWAP2 SUB SWAP1 LOG3 PUSH1 0x3 PUSH1 0x0 SWAP1 SLOAD SWAP1 PUSH2 0x100 EXP SWAP1 DIV PUSH20 0xFFFFFFFFFFFFFFFFFFFFFFFFFFFFFFFFFFFFFFFF AND PUSH20 0xFFFFFFFFFFFFFFFFFFFFFFFFFFFFFFFFFFFFFFFF AND PUSH4 0x23B872DD PUSH1 0x0 DUP1 SLOAD SWAP1 PUSH2 0x100 EXP SWAP1 DIV PUSH20 0xFFFFFFFFFFFFFFFFFFFFFFFFFFFFFFFFFFFFFFFF AND CALLER CALLVALUE PUSH1 0x40 MLOAD DUP5 PUSH4 0xFFFFFFFF AND PUSH1 0xE0 SHL DUP2 MSTORE PUSH1 0x4 ADD PUSH2 0x2B10 SWAP4 SWAP3 SWAP2 SWAP1 PUSH2 0x3636 JUMP JUMPDEST PUSH1 0x20 PUSH1 0x40 MLOAD DUP1 DUP4 SUB DUP2 PUSH1 0x0 DUP8 DUP1 EXTCODESIZE ISZERO DUP1 ISZERO PUSH2 0x2B2A JUMPI PUSH1 0x0 DUP1 REVERT JUMPDEST POP GAS CALL ISZERO DUP1 ISZERO PUSH2 0x2B3E JUMPI RETURNDATASIZE PUSH1 0x0 DUP1 RETURNDATACOPY RETURNDATASIZE PUSH1 0x0 REVERT JUMPDEST POP POP POP POP PUSH1 0x40 MLOAD RETURNDATASIZE PUSH1 0x1F NOT PUSH1 0x1F DUP3 ADD AND DUP3 ADD DUP1 PUSH1 0x40 MSTORE POP DUP2 ADD SWAP1 PUSH2 0x2B62 SWAP2 SWAP1 PUSH2 0x30CF JUMP JUMPDEST POP POP POP POP POP JUMP JUMPDEST DUP1 PUSH1 0x0 PUSH1 0x1 PUSH1 0x0 DUP4 DUP2 MSTORE PUSH1 0x20 ADD SWAP1 DUP2 MSTORE PUSH1 0x20 ADD PUSH1 0x0 KECCAK256 PUSH1 0x1 ADD DUP1 SLOAD PUSH2 0x2B8D SWAP1 PUSH2 0x3B47 JUMP JUMPDEST DUP1 PUSH1 0x1F ADD PUSH1 0x20 DUP1 SWAP2 DIV MUL PUSH1 0x20 ADD PUSH1 0x40 MLOAD SWAP1 DUP2 ADD PUSH1 0x40 MSTORE DUP1 SWAP3 SWAP2 SWAP1 DUP2 DUP2 MSTORE PUSH1 0x20 ADD DUP3 DUP1 SLOAD PUSH2 0x2BB9 SWAP1 PUSH2 0x3B47 JUMP JUMPDEST DUP1 ISZERO PUSH2 0x2C06 JUMPI DUP1 PUSH1 0x1F LT PUSH2 0x2BDB JUMPI PUSH2 0x100 DUP1 DUP4 SLOAD DIV MUL DUP4 MSTORE SWAP2 PUSH1 0x20 ADD SWAP2 PUSH2 0x2C06 JUMP JUMPDEST DUP3 ADD SWAP2 SWAP1 PUSH1 0x0 MSTORE PUSH1 0x20 PUSH1 0x0 KECCAK256 SWAP1 JUMPDEST DUP2 SLOAD DUP2 MSTORE SWAP1 PUSH1 0x1 ADD SWAP1 PUSH1 0x20 ADD DUP1 DUP4 GT PUSH2 0x2BE9 JUMPI DUP3 SWAP1 SUB PUSH1 0x1F AND DUP3 ADD SWAP2 JUMPDEST POP POP POP POP POP SWAP1 POP PUSH1 0x0 DUP2 MLOAD GT PUSH2 0x2C51 JUMPI PUSH1 0x40 MLOAD PUSH32 0x8C379A000000000000000000000000000000000000000000000000000000000 DUP2 MSTORE PUSH1 0x4 ADD PUSH2 0x2C48 SWAP1 PUSH2 0x375B JUMP JUMPDEST PUSH1 0x40 MLOAD DUP1 SWAP2 SUB SWAP1 REVERT JUMPDEST PUSH1 0x0 DUP1 SLOAD SWAP1 PUSH2 0x100 EXP SWAP1 DIV PUSH20 0xFFFFFFFFFFFFFFFFFFFFFFFFFFFFFFFFFFFFFFFF AND PUSH20 0xFFFFFFFFFFFFFFFFFFFFFFFFFFFFFFFFFFFFFFFF AND CALLER PUSH20 0xFFFFFFFFFFFFFFFFFFFFFFFFFFFFFFFFFFFFFFFF AND EQ PUSH2 0x2CDF JUMPI PUSH1 0x40 MLOAD PUSH32 0x8C379A000000000000000000000000000000000000000000000000000000000 DUP2 MSTORE PUSH1 0x4 ADD PUSH2 0x2CD6 SWAP1 PUSH2 0x36DB JUMP JUMPDEST PUSH1 0x40 MLOAD DUP1 SWAP2 SUB SWAP1 REVERT JUMPDEST PUSH1 0x0 PUSH1 0x1 PUSH1 0x0 DUP6 DUP2 MSTORE PUSH1 0x20 ADD SWAP1 DUP2 MSTORE PUSH1 0x20 ADD PUSH1 0x0 KECCAK256 PUSH1 0x3 ADD PUSH1 0x0 PUSH2 0x100 EXP DUP2 SLOAD DUP2 PUSH1 0xFF MUL NOT AND SWAP1 DUP4 PUSH1 0xFF AND MUL OR SWAP1 SSTORE POP PUSH1 0x0 PUSH1 0x1 PUSH1 0x0 DUP6 DUP2 MSTORE PUSH1 0x20 ADD SWAP1 DUP2 MSTORE PUSH1 0x20 ADD PUSH1 0x0 KECCAK256 PUSH1 0x3 ADD PUSH1 0x1 PUSH2 0x100 EXP DUP2 SLOAD DUP2 PUSH1 0xFF MUL NOT AND SWAP1 DUP4 PUSH1 0xFF AND MUL OR SWAP1 SSTORE POP PUSH1 0x1 DUP1 PUSH1 0x0 DUP6 DUP2 MSTORE PUSH1 0x20 ADD SWAP1 DUP2 MSTORE PUSH1 0x20 ADD PUSH1 0x0 KECCAK256 PUSH1 0x0 ADD PUSH1 0x1 PUSH2 0x100 EXP DUP2 SLOAD DUP2 PUSH1 0xFF MUL NOT AND SWAP1 DUP4 ISZERO ISZERO MUL OR SWAP1 SSTORE POP PUSH1 0x1 DUP1 PUSH1 0x0 DUP6 DUP2 MSTORE PUSH1 0x20 ADD SWAP1 DUP2 MSTORE PUSH1 0x20 ADD PUSH1 0x0 KECCAK256 PUSH1 0x0 ADD PUSH1 0x2 PUSH2 0x100 EXP DUP2 SLOAD DUP2 PUSH1 0xFF MUL NOT AND SWAP1 DUP4 ISZERO ISZERO MUL OR SWAP1 SSTORE POP DUP3 PUSH32 0x612C062AA219471D6A7AD857CDD6EB55608F5196F3F00DB33C5CCEFE81DC7E30 PUSH1 0x40 MLOAD PUSH1 0x40 MLOAD DUP1 SWAP2 SUB SWAP1 LOG2 POP POP POP JUMP JUMPDEST PUSH1 0x0 DUP2 PUSH1 0x0 PUSH1 0x1 PUSH1 0x0 DUP4 DUP2 MSTORE PUSH1 0x20 ADD SWAP1 DUP2 MSTORE PUSH1 0x20 ADD PUSH1 0x0 KECCAK256 PUSH1 0x1 ADD DUP1 SLOAD PUSH2 0x2DF3 SWAP1 PUSH2 0x3B47 JUMP JUMPDEST DUP1 PUSH1 0x1F ADD PUSH1 0x20 DUP1 SWAP2 DIV MUL PUSH1 0x20 ADD PUSH1 0x40 MLOAD SWAP1 DUP2 ADD PUSH1 0x40 MSTORE DUP1 SWAP3 SWAP2 SWAP1 DUP2 DUP2 MSTORE PUSH1 0x20 ADD DUP3 DUP1 SLOAD PUSH2 0x2E1F SWAP1 PUSH2 0x3B47 JUMP JUMPDEST DUP1 ISZERO PUSH2 0x2E6C JUMPI DUP1 PUSH1 0x1F LT PUSH2 0x2E41 JUMPI PUSH2 0x100 DUP1 DUP4 SLOAD DIV MUL DUP4 MSTORE SWAP2 PUSH1 0x20 ADD SWAP2 PUSH2 0x2E6C JUMP JUMPDEST DUP3 ADD SWAP2 SWAP1 PUSH1 0x0 MSTORE PUSH1 0x20 PUSH1 0x0 KECCAK256 SWAP1 JUMPDEST DUP2 SLOAD DUP2 MSTORE SWAP1 PUSH1 0x1 ADD SWAP1 PUSH1 0x20 ADD DUP1 DUP4 GT PUSH2 0x2E4F JUMPI DUP3 SWAP1 SUB PUSH1 0x1F AND DUP3 ADD SWAP2 JUMPDEST POP POP POP POP POP SWAP1 POP PUSH1 0x0 DUP2 MLOAD GT PUSH2 0x2EB7 JUMPI PUSH1 0x40 MLOAD PUSH32 0x8C379A000000000000000000000000000000000000000000000000000000000 DUP2 MSTORE PUSH1 0x4 ADD PUSH2 0x2EAE SWAP1 PUSH2 0x375B JUMP JUMPDEST PUSH1 0x40 MLOAD DUP1 SWAP2 SUB SWAP1 REVERT JUMPDEST PUSH1 0x1 PUSH1 0x0 DUP6 DUP2 MSTORE PUSH1 0x20 ADD SWAP1 DUP2 MSTORE PUSH1 0x20 ADD PUSH1 0x0 KECCAK256 PUSH1 0x4 ADD SLOAD SWAP3 POP POP POP SWAP2 SWAP1 POP JUMP JUMPDEST PUSH1 0x60 PUSH1 0x1 PUSH1 0x0 DUP4 DUP2 MSTORE PUSH1 0x20 ADD SWAP1 DUP2 MSTORE PUSH1 0x20 ADD PUSH1 0x0 KECCAK256 PUSH1 0x0 ADD PUSH1 0x2 SWAP1 SLOAD SWAP1 PUSH2 0x100 EXP SWAP1 DIV PUSH1 0xFF AND ISZERO PUSH2 0x2F3F JUMPI PUSH1 0x40 MLOAD DUP1 PUSH1 0x40 ADD PUSH1 0x40 MSTORE DUP1 PUSH1 0x8 DUP2 MSTORE PUSH1 0x20 ADD PUSH32 0x506F7374706F6E65000000000000000000000000000000000000000000000000 DUP2 MSTORE POP SWAP1 POP PUSH2 0x2F78 JUMP JUMPDEST PUSH1 0x40 MLOAD DUP1 PUSH1 0x40 ADD PUSH1 0x40 MSTORE DUP1 PUSH1 0x6 DUP2 MSTORE PUSH1 0x20 ADD PUSH32 0x46696E6973680000000000000000000000000000000000000000000000000000 DUP2 MSTORE POP SWAP1 POP JUMPDEST SWAP2 SWAP1 POP JUMP JUMPDEST DUP3 DUP1 SLOAD PUSH2 0x2F89 SWAP1 PUSH2 0x3B47 JUMP JUMPDEST SWAP1 PUSH1 0x0 MSTORE PUSH1 0x20 PUSH1 0x0 KECCAK256 SWAP1 PUSH1 0x1F ADD PUSH1 0x20 SWAP1 DIV DUP2 ADD SWAP3 DUP3 PUSH2 0x2FAB JUMPI PUSH1 0x0 DUP6 SSTORE PUSH2 0x2FF2 JUMP JUMPDEST DUP3 PUSH1 0x1F LT PUSH2 0x2FC4 JUMPI DUP1 MLOAD PUSH1 0xFF NOT AND DUP4 DUP1 ADD OR DUP6 SSTORE PUSH2 0x2FF2 JUMP JUMPDEST DUP3 DUP1 ADD PUSH1 0x1 ADD DUP6 SSTORE DUP3 ISZERO PUSH2 0x2FF2 JUMPI SWAP2 DUP3 ADD JUMPDEST DUP3 DUP2 GT ISZERO PUSH2 0x2FF1 JUMPI DUP3 MLOAD DUP3 SSTORE SWAP2 PUSH1 0x20 ADD SWAP2 SWAP1 PUSH1 0x1 ADD SWAP1 PUSH2 0x2FD6 JUMP JUMPDEST JUMPDEST POP SWAP1 POP PUSH2 0x2FFF SWAP2 SWAP1 PUSH2 0x3003 JUMP JUMPDEST POP SWAP1 JUMP JUMPDEST JUMPDEST DUP1 DUP3 GT ISZERO PUSH2 0x301C JUMPI PUSH1 0x0 DUP2 PUSH1 0x0 SWAP1 SSTORE POP PUSH1 0x1 ADD PUSH2 0x3004 JUMP JUMPDEST POP SWAP1 JUMP JUMPDEST PUSH1 0x0 PUSH2 0x3033 PUSH2 0x302E DUP5 PUSH2 0x38AB JUMP JUMPDEST PUSH2 0x3886 JUMP JUMPDEST SWAP1 POP DUP3 DUP2 MSTORE PUSH1 0x20 DUP2 ADD DUP5 DUP5 DUP5 ADD GT ISZERO PUSH2 0x304F JUMPI PUSH2 0x304E PUSH2 0x3CE3 JUMP JUMPDEST JUMPDEST PUSH2 0x305A DUP5 DUP3 DUP6 PUSH2 0x3B05 JUMP JUMPDEST POP SWAP4 SWAP3 POP POP POP JUMP JUMPDEST PUSH1 0x0 DUP2 MLOAD SWAP1 POP PUSH2 0x3071 DUP2 PUSH2 0x3EEF JUMP JUMPDEST SWAP3 SWAP2 POP POP JUMP JUMPDEST PUSH1 0x0 DUP3 PUSH1 0x1F DUP4 ADD SLT PUSH2 0x308C JUMPI PUSH2 0x308B PUSH2 0x3CDE JUMP JUMPDEST JUMPDEST DUP2 CALLDATALOAD PUSH2 0x309C DUP5 DUP3 PUSH1 0x20 DUP7 ADD PUSH2 0x3020 JUMP JUMPDEST SWAP2 POP POP SWAP3 SWAP2 POP POP JUMP JUMPDEST PUSH1 0x0 DUP2 CALLDATALOAD SWAP1 POP PUSH2 0x30B4 DUP2 PUSH2 0x3F06 JUMP JUMPDEST SWAP3 SWAP2 POP POP JUMP JUMPDEST PUSH1 0x0 DUP2 CALLDATALOAD SWAP1 POP PUSH2 0x30C9 DUP2 PUSH2 0x3F1D JUMP JUMPDEST SWAP3 SWAP2 POP POP JUMP JUMPDEST PUSH1 0x0 PUSH1 0x20 DUP3 DUP5 SUB SLT ISZERO PUSH2 0x30E5 JUMPI PUSH2 0x30E4 PUSH2 0x3CED JUMP JUMPDEST JUMPDEST PUSH1 0x0 PUSH2 0x30F3 DUP5 DUP3 DUP6 ADD PUSH2 0x3062 JUMP JUMPDEST SWAP2 POP POP SWAP3 SWAP2 POP POP JUMP JUMPDEST PUSH1 0x0 DUP1 PUSH1 0x40 DUP4 DUP6 SUB SLT ISZERO PUSH2 0x3113 JUMPI PUSH2 0x3112 PUSH2 0x3CED JUMP JUMPDEST JUMPDEST PUSH1 0x0 DUP4 ADD CALLDATALOAD PUSH8 0xFFFFFFFFFFFFFFFF DUP2 GT ISZERO PUSH2 0x3131 JUMPI PUSH2 0x3130 PUSH2 0x3CE8 JUMP JUMPDEST JUMPDEST PUSH2 0x313D DUP6 DUP3 DUP7 ADD PUSH2 0x3077 JUMP JUMPDEST SWAP3 POP POP PUSH1 0x20 DUP4 ADD CALLDATALOAD PUSH8 0xFFFFFFFFFFFFFFFF DUP2 GT ISZERO PUSH2 0x315E JUMPI PUSH2 0x315D PUSH2 0x3CE8 JUMP JUMPDEST JUMPDEST PUSH2 0x316A DUP6 DUP3 DUP7 ADD PUSH2 0x3077 JUMP JUMPDEST SWAP2 POP POP SWAP3 POP SWAP3 SWAP1 POP JUMP JUMPDEST PUSH1 0x0 PUSH1 0x20 DUP3 DUP5 SUB SLT ISZERO PUSH2 0x318A JUMPI PUSH2 0x3189 PUSH2 0x3CED JUMP JUMPDEST JUMPDEST PUSH1 0x0 PUSH2 0x3198 DUP5 DUP3 DUP6 ADD PUSH2 0x30A5 JUMP JUMPDEST SWAP2 POP POP SWAP3 SWAP2 POP POP JUMP JUMPDEST PUSH1 0x0 DUP1 PUSH1 0x0 PUSH1 0x60 DUP5 DUP7 SUB SLT ISZERO PUSH2 0x31BA JUMPI PUSH2 0x31B9 PUSH2 0x3CED JUMP JUMPDEST JUMPDEST PUSH1 0x0 PUSH2 0x31C8 DUP7 DUP3 DUP8 ADD PUSH2 0x30A5 JUMP JUMPDEST SWAP4 POP POP PUSH1 0x20 PUSH2 0x31D9 DUP7 DUP3 DUP8 ADD PUSH2 0x30BA JUMP JUMPDEST SWAP3 POP POP PUSH1 0x40 PUSH2 0x31EA DUP7 DUP3 DUP8 ADD PUSH2 0x30BA JUMP JUMPDEST SWAP2 POP POP SWAP3 POP SWAP3 POP SWAP3 JUMP JUMPDEST PUSH1 0x0 PUSH2 0x3200 DUP4 DUP4 PUSH2 0x3302 JUMP JUMPDEST SWAP1 POP SWAP3 SWAP2 POP POP JUMP JUMPDEST PUSH1 0x0 PUSH2 0x3214 DUP4 DUP4 PUSH2 0x35C8 JUMP JUMPDEST PUSH1 0x20 DUP4 ADD SWAP1 POP SWAP3 SWAP2 POP POP JUMP JUMPDEST PUSH2 0x3229 DUP2 PUSH2 0x3AB0 JUMP JUMPDEST DUP3 MSTORE POP POP JUMP JUMPDEST PUSH1 0x0 PUSH2 0x323A DUP3 PUSH2 0x3911 JUMP JUMPDEST PUSH2 0x3244 DUP2 DUP6 PUSH2 0x394C JUMP JUMPDEST SWAP4 POP DUP4 PUSH1 0x20 DUP3 MUL DUP6 ADD PUSH2 0x3256 DUP6 PUSH2 0x38DC JUMP JUMPDEST DUP1 PUSH1 0x0 JUMPDEST DUP6 DUP2 LT ISZERO PUSH2 0x3292 JUMPI DUP5 DUP5 SUB DUP10 MSTORE DUP2 MLOAD PUSH2 0x3273 DUP6 DUP3 PUSH2 0x31F4 JUMP JUMPDEST SWAP5 POP PUSH2 0x327E DUP4 PUSH2 0x3932 JUMP JUMPDEST SWAP3 POP PUSH1 0x20 DUP11 ADD SWAP10 POP POP PUSH1 0x1 DUP2 ADD SWAP1 POP PUSH2 0x325A JUMP JUMPDEST POP DUP3 SWAP8 POP DUP8 SWAP6 POP POP POP POP POP POP SWAP3 SWAP2 POP POP JUMP JUMPDEST PUSH1 0x0 PUSH2 0x32AF DUP3 PUSH2 0x391C JUMP JUMPDEST PUSH2 0x32B9 DUP2 DUP6 PUSH2 0x395D JUMP JUMPDEST SWAP4 POP PUSH2 0x32C4 DUP4 PUSH2 0x38EC JUMP JUMPDEST DUP1 PUSH1 0x0 JUMPDEST DUP4 DUP2 LT ISZERO PUSH2 0x32F5 JUMPI DUP2 MLOAD PUSH2 0x32DC DUP9 DUP3 PUSH2 0x3208 JUMP JUMPDEST SWAP8 POP PUSH2 0x32E7 DUP4 PUSH2 0x393F JUMP JUMPDEST SWAP3 POP POP PUSH1 0x1 DUP2 ADD SWAP1 POP PUSH2 0x32C8 JUMP JUMPDEST POP DUP6 SWAP4 POP POP POP POP SWAP3 SWAP2 POP POP JUMP JUMPDEST PUSH1 0x0 PUSH2 0x330D DUP3 PUSH2 0x3927 JUMP JUMPDEST PUSH2 0x3317 DUP2 DUP6 PUSH2 0x396E JUMP JUMPDEST SWAP4 POP PUSH2 0x3327 DUP2 DUP6 PUSH1 0x20 DUP7 ADD PUSH2 0x3B14 JUMP JUMPDEST PUSH2 0x3330 DUP2 PUSH2 0x3CF2 JUMP JUMPDEST DUP5 ADD SWAP2 POP POP SWAP3 SWAP2 POP POP JUMP JUMPDEST PUSH1 0x0 PUSH2 0x3346 DUP3 PUSH2 0x3927 JUMP JUMPDEST PUSH2 0x3350 DUP2 DUP6 PUSH2 0x397F JUMP JUMPDEST SWAP4 POP PUSH2 0x3360 DUP2 DUP6 PUSH1 0x20 DUP7 ADD PUSH2 0x3B14 JUMP JUMPDEST PUSH2 0x3369 DUP2 PUSH2 0x3CF2 JUMP JUMPDEST DUP5 ADD SWAP2 POP POP SWAP3 SWAP2 POP POP JUMP JUMPDEST PUSH1 0x0 PUSH2 0x337F DUP3 PUSH2 0x3927 JUMP JUMPDEST PUSH2 0x3389 DUP2 DUP6 PUSH2 0x3990 JUMP JUMPDEST SWAP4 POP PUSH2 0x3399 DUP2 DUP6 PUSH1 0x20 DUP7 ADD PUSH2 0x3B14 JUMP JUMPDEST DUP1 DUP5 ADD SWAP2 POP POP SWAP3 SWAP2 POP POP JUMP JUMPDEST PUSH1 0x0 DUP2 SLOAD PUSH2 0x33B2 DUP2 PUSH2 0x3B47 JUMP JUMPDEST PUSH2 0x33BC DUP2 DUP7 PUSH2 0x3990 JUMP JUMPDEST SWAP5 POP PUSH1 0x1 DUP3 AND PUSH1 0x0 DUP2 EQ PUSH2 0x33D7 JUMPI PUSH1 0x1 DUP2 EQ PUSH2 0x33E8 JUMPI PUSH2 0x341B JUMP JUMPDEST PUSH1 0xFF NOT DUP4 AND DUP7 MSTORE DUP2 DUP7 ADD SWAP4 POP PUSH2 0x341B JUMP JUMPDEST PUSH2 0x33F1 DUP6 PUSH2 0x38FC JUMP JUMPDEST PUSH1 0x0 JUMPDEST DUP4 DUP2 LT ISZERO PUSH2 0x3413 JUMPI DUP2 SLOAD DUP2 DUP10 ADD MSTORE PUSH1 0x1 DUP3 ADD SWAP2 POP PUSH1 0x20 DUP2 ADD SWAP1 POP PUSH2 0x33F4 JUMP JUMPDEST DUP4 DUP9 ADD SWAP6 POP POP POP JUMPDEST POP POP POP SWAP3 SWAP2 POP POP JUMP JUMPDEST PUSH1 0x0 PUSH2 0x3431 PUSH1 0xA DUP4 PUSH2 0x397F JUMP JUMPDEST SWAP2 POP PUSH2 0x343C DUP3 PUSH2 0x3D03 JUMP JUMPDEST PUSH1 0x20 DUP3 ADD SWAP1 POP SWAP2 SWAP1 POP JUMP JUMPDEST PUSH1 0x0 PUSH2 0x3454 PUSH1 0x18 DUP4 PUSH2 0x397F JUMP JUMPDEST SWAP2 POP PUSH2 0x345F DUP3 PUSH2 0x3D2C JUMP JUMPDEST PUSH1 0x20 DUP3 ADD SWAP1 POP SWAP2 SWAP1 POP JUMP JUMPDEST PUSH1 0x0 PUSH2 0x3477 PUSH1 0x20 DUP4 PUSH2 0x397F JUMP JUMPDEST SWAP2 POP PUSH2 0x3482 DUP3 PUSH2 0x3D55 JUMP JUMPDEST PUSH1 0x20 DUP3 ADD SWAP1 POP SWAP2 SWAP1 POP JUMP JUMPDEST PUSH1 0x0 PUSH2 0x349A PUSH1 0x20 DUP4 PUSH2 0x397F JUMP JUMPDEST SWAP2 POP PUSH2 0x34A5 DUP3 PUSH2 0x3D7E JUMP JUMPDEST PUSH1 0x20 DUP3 ADD SWAP1 POP SWAP2 SWAP1 POP JUMP JUMPDEST PUSH1 0x0 PUSH2 0x34BD PUSH1 0x1A DUP4 PUSH2 0x397F JUMP JUMPDEST SWAP2 POP PUSH2 0x34C8 DUP3 PUSH2 0x3DA7 JUMP JUMPDEST PUSH1 0x20 DUP3 ADD SWAP1 POP SWAP2 SWAP1 POP JUMP JUMPDEST PUSH1 0x0 PUSH2 0x34E0 PUSH1 0x11 DUP4 PUSH2 0x397F JUMP JUMPDEST SWAP2 POP PUSH2 0x34EB DUP3 PUSH2 0x3DD0 JUMP JUMPDEST PUSH1 0x20 DUP3 ADD SWAP1 POP SWAP2 SWAP1 POP JUMP JUMPDEST PUSH1 0x0 PUSH2 0x3503 PUSH1 0x17 DUP4 PUSH2 0x397F JUMP JUMPDEST SWAP2 POP PUSH2 0x350E DUP3 PUSH2 0x3DF9 JUMP JUMPDEST PUSH1 0x20 DUP3 ADD SWAP1 POP SWAP2 SWAP1 POP JUMP JUMPDEST PUSH1 0x0 PUSH2 0x3526 PUSH1 0x1B DUP4 PUSH2 0x397F JUMP JUMPDEST SWAP2 POP PUSH2 0x3531 DUP3 PUSH2 0x3E22 JUMP JUMPDEST PUSH1 0x20 DUP3 ADD SWAP1 POP SWAP2 SWAP1 POP JUMP JUMPDEST PUSH1 0x0 PUSH2 0x3549 PUSH1 0xB DUP4 PUSH2 0x3990 JUMP JUMPDEST SWAP2 POP PUSH2 0x3554 DUP3 PUSH2 0x3E4B JUMP JUMPDEST PUSH1 0xB DUP3 ADD SWAP1 POP SWAP2 SWAP1 POP JUMP JUMPDEST PUSH1 0x0 PUSH2 0x356C PUSH1 0x1D DUP4 PUSH2 0x397F JUMP JUMPDEST SWAP2 POP PUSH2 0x3577 DUP3 PUSH2 0x3E74 JUMP JUMPDEST PUSH1 0x20 DUP3 ADD SWAP1 POP SWAP2 SWAP1 POP JUMP JUMPDEST PUSH1 0x0 PUSH2 0x358F PUSH1 0x17 DUP4 PUSH2 0x397F JUMP JUMPDEST SWAP2 POP PUSH2 0x359A DUP3 PUSH2 0x3E9D JUMP JUMPDEST PUSH1 0x20 DUP3 ADD SWAP1 POP SWAP2 SWAP1 POP JUMP JUMPDEST PUSH1 0x0 PUSH2 0x35B2 PUSH1 0x19 DUP4 PUSH2 0x397F JUMP JUMPDEST SWAP2 POP PUSH2 0x35BD DUP3 PUSH2 0x3EC6 JUMP JUMPDEST PUSH1 0x20 DUP3 ADD SWAP1 POP SWAP2 SWAP1 POP JUMP JUMPDEST PUSH2 0x35D1 DUP2 PUSH2 0x3AEE JUMP JUMPDEST DUP3 MSTORE POP POP JUMP JUMPDEST PUSH2 0x35E0 DUP2 PUSH2 0x3AEE JUMP JUMPDEST DUP3 MSTORE POP POP JUMP JUMPDEST PUSH1 0x0 PUSH2 0x35F2 DUP3 DUP5 PUSH2 0x3374 JUMP JUMPDEST SWAP2 POP DUP2 SWAP1 POP SWAP3 SWAP2 POP POP JUMP JUMPDEST PUSH1 0x0 PUSH2 0x3609 DUP3 DUP5 PUSH2 0x33A5 JUMP JUMPDEST SWAP2 POP DUP2 SWAP1 POP SWAP3 SWAP2 POP POP JUMP JUMPDEST PUSH1 0x0 PUSH2 0x3620 DUP3 DUP5 PUSH2 0x33A5 JUMP JUMPDEST SWAP2 POP PUSH2 0x362B DUP3 PUSH2 0x353C JUMP JUMPDEST SWAP2 POP DUP2 SWAP1 POP SWAP3 SWAP2 POP POP JUMP JUMPDEST PUSH1 0x0 PUSH1 0x60 DUP3 ADD SWAP1 POP PUSH2 0x364B PUSH1 0x0 DUP4 ADD DUP7 PUSH2 0x3220 JUMP JUMPDEST PUSH2 0x3658 PUSH1 0x20 DUP4 ADD DUP6 PUSH2 0x3220 JUMP JUMPDEST PUSH2 0x3665 PUSH1 0x40 DUP4 ADD DUP5 PUSH2 0x35D7 JUMP JUMPDEST SWAP5 SWAP4 POP POP POP POP JUMP JUMPDEST PUSH1 0x0 PUSH1 0x60 DUP3 ADD SWAP1 POP DUP2 DUP2 SUB PUSH1 0x0 DUP4 ADD MSTORE PUSH2 0x3687 DUP2 DUP7 PUSH2 0x322F JUMP JUMPDEST SWAP1 POP DUP2 DUP2 SUB PUSH1 0x20 DUP4 ADD MSTORE PUSH2 0x369B DUP2 DUP6 PUSH2 0x322F JUMP JUMPDEST SWAP1 POP DUP2 DUP2 SUB PUSH1 0x40 DUP4 ADD MSTORE PUSH2 0x36AF DUP2 DUP5 PUSH2 0x32A4 JUMP JUMPDEST SWAP1 POP SWAP5 SWAP4 POP POP POP POP JUMP JUMPDEST PUSH1 0x0 PUSH1 0x20 DUP3 ADD SWAP1 POP DUP2 DUP2 SUB PUSH1 0x0 DUP4 ADD MSTORE PUSH2 0x36D3 DUP2 DUP5 PUSH2 0x333B JUMP JUMPDEST SWAP1 POP SWAP3 SWAP2 POP POP JUMP JUMPDEST PUSH1 0x0 PUSH1 0x20 DUP3 ADD SWAP1 POP DUP2 DUP2 SUB PUSH1 0x0 DUP4 ADD MSTORE PUSH2 0x36F4 DUP2 PUSH2 0x3424 JUMP JUMPDEST SWAP1 POP SWAP2 SWAP1 POP JUMP JUMPDEST PUSH1 0x0 PUSH1 0x20 DUP3 ADD SWAP1 POP DUP2 DUP2 SUB PUSH1 0x0 DUP4 ADD MSTORE PUSH2 0x3714 DUP2 PUSH2 0x3447 JUMP JUMPDEST SWAP1 POP SWAP2 SWAP1 POP JUMP JUMPDEST PUSH1 0x0 PUSH1 0x20 DUP3 ADD SWAP1 POP DUP2 DUP2 SUB PUSH1 0x0 DUP4 ADD MSTORE PUSH2 0x3734 DUP2 PUSH2 0x346A JUMP JUMPDEST SWAP1 POP SWAP2 SWAP1 POP JUMP JUMPDEST PUSH1 0x0 PUSH1 0x20 DUP3 ADD SWAP1 POP DUP2 DUP2 SUB PUSH1 0x0 DUP4 ADD MSTORE PUSH2 0x3754 DUP2 PUSH2 0x348D JUMP JUMPDEST SWAP1 POP SWAP2 SWAP1 POP JUMP JUMPDEST PUSH1 0x0 PUSH1 0x20 DUP3 ADD SWAP1 POP DUP2 DUP2 SUB PUSH1 0x0 DUP4 ADD MSTORE PUSH2 0x3774 DUP2 PUSH2 0x34B0 JUMP JUMPDEST SWAP1 POP SWAP2 SWAP1 POP JUMP JUMPDEST PUSH1 0x0 PUSH1 0x20 DUP3 ADD SWAP1 POP DUP2 DUP2 SUB PUSH1 0x0 DUP4 ADD MSTORE PUSH2 0x3794 DUP2 PUSH2 0x34D3 JUMP JUMPDEST SWAP1 POP SWAP2 SWAP1 POP JUMP JUMPDEST PUSH1 0x0 PUSH1 0x20 DUP3 ADD SWAP1 POP DUP2 DUP2 SUB PUSH1 0x0 DUP4 ADD MSTORE PUSH2 0x37B4 DUP2 PUSH2 0x34F6 JUMP JUMPDEST SWAP1 POP SWAP2 SWAP1 POP JUMP JUMPDEST PUSH1 0x0 PUSH1 0x20 DUP3 ADD SWAP1 POP DUP2 DUP2 SUB PUSH1 0x0 DUP4 ADD MSTORE PUSH2 0x37D4 DUP2 PUSH2 0x3519 JUMP JUMPDEST SWAP1 POP SWAP2 SWAP1 POP JUMP JUMPDEST PUSH1 0x0 PUSH1 0x20 DUP3 ADD SWAP1 POP DUP2 DUP2 SUB PUSH1 0x0 DUP4 ADD MSTORE PUSH2 0x37F4 DUP2 PUSH2 0x355F JUMP JUMPDEST SWAP1 POP SWAP2 SWAP1 POP JUMP JUMPDEST PUSH1 0x0 PUSH1 0x20 DUP3 ADD SWAP1 POP DUP2 DUP2 SUB PUSH1 0x0 DUP4 ADD MSTORE PUSH2 0x3814 DUP2 PUSH2 0x3582 JUMP JUMPDEST SWAP1 POP SWAP2 SWAP1 POP JUMP JUMPDEST PUSH1 0x0 PUSH1 0x20 DUP3 ADD SWAP1 POP DUP2 DUP2 SUB PUSH1 0x0 DUP4 ADD MSTORE PUSH2 0x3834 DUP2 PUSH2 0x35A5 JUMP JUMPDEST SWAP1 POP SWAP2 SWAP1 POP JUMP JUMPDEST PUSH1 0x0 PUSH1 0x20 DUP3 ADD SWAP1 POP PUSH2 0x3850 PUSH1 0x0 DUP4 ADD DUP5 PUSH2 0x35D7 JUMP JUMPDEST SWAP3 SWAP2 POP POP JUMP JUMPDEST PUSH1 0x0 PUSH1 0x40 DUP3 ADD SWAP1 POP PUSH2 0x386B PUSH1 0x0 DUP4 ADD DUP6 PUSH2 0x35D7 JUMP JUMPDEST DUP2 DUP2 SUB PUSH1 0x20 DUP4 ADD MSTORE PUSH2 0x387D DUP2 DUP5 PUSH2 0x333B JUMP JUMPDEST SWAP1 POP SWAP4 SWAP3 POP POP POP JUMP JUMPDEST PUSH1 0x0 PUSH2 0x3890 PUSH2 0x38A1 JUMP JUMPDEST SWAP1 POP PUSH2 0x389C DUP3 DUP3 PUSH2 0x3B79 JUMP JUMPDEST SWAP2 SWAP1 POP JUMP JUMPDEST PUSH1 0x0 PUSH1 0x40 MLOAD SWAP1 POP SWAP1 JUMP JUMPDEST PUSH1 0x0 PUSH8 0xFFFFFFFFFFFFFFFF DUP3 GT ISZERO PUSH2 0x38C6 JUMPI PUSH2 0x38C5 PUSH2 0x3CAF JUMP JUMPDEST JUMPDEST PUSH2 0x38CF DUP3 PUSH2 0x3CF2 JUMP JUMPDEST SWAP1 POP PUSH1 0x20 DUP2 ADD SWAP1 POP SWAP2 SWAP1 POP JUMP JUMPDEST PUSH1 0x0 DUP2 SWAP1 POP PUSH1 0x20 DUP3 ADD SWAP1 POP SWAP2 SWAP1 POP JUMP JUMPDEST PUSH1 0x0 DUP2 SWAP1 POP PUSH1 0x20 DUP3 ADD SWAP1 POP SWAP2 SWAP1 POP JUMP JUMPDEST PUSH1 0x0 DUP2 SWAP1 POP DUP2 PUSH1 0x0 MSTORE PUSH1 0x20 PUSH1 0x0 KECCAK256 SWAP1 POP SWAP2 SWAP1 POP JUMP JUMPDEST PUSH1 0x0 DUP2 MLOAD SWAP1 POP SWAP2 SWAP1 POP JUMP JUMPDEST PUSH1 0x0 DUP2 MLOAD SWAP1 POP SWAP2 SWAP1 POP JUMP JUMPDEST PUSH1 0x0 DUP2 MLOAD SWAP1 POP SWAP2 SWAP1 POP JUMP JUMPDEST PUSH1 0x0 PUSH1 0x20 DUP3 ADD SWAP1 POP SWAP2 SWAP1 POP JUMP JUMPDEST PUSH1 0x0 PUSH1 0x20 DUP3 ADD SWAP1 POP SWAP2 SWAP1 POP JUMP JUMPDEST PUSH1 0x0 DUP3 DUP3 MSTORE PUSH1 0x20 DUP3 ADD SWAP1 POP SWAP3 SWAP2 POP POP JUMP JUMPDEST PUSH1 0x0 DUP3 DUP3 MSTORE PUSH1 0x20 DUP3 ADD SWAP1 POP SWAP3 SWAP2 POP POP JUMP JUMPDEST PUSH1 0x0 DUP3 DUP3 MSTORE PUSH1 0x20 DUP3 ADD SWAP1 POP SWAP3 SWAP2 POP POP JUMP JUMPDEST PUSH1 0x0 DUP3 DUP3 MSTORE PUSH1 0x20 DUP3 ADD SWAP1 POP SWAP3 SWAP2 POP POP JUMP JUMPDEST PUSH1 0x0 DUP2 SWAP1 POP SWAP3 SWAP2 POP POP JUMP JUMPDEST PUSH1 0x0 PUSH2 0x39A6 DUP3 PUSH2 0x3AEE JUMP JUMPDEST SWAP2 POP PUSH2 0x39B1 DUP4 PUSH2 0x3AEE JUMP JUMPDEST SWAP3 POP DUP3 PUSH32 0xFFFFFFFFFFFFFFFFFFFFFFFFFFFFFFFFFFFFFFFFFFFFFFFFFFFFFFFFFFFFFFFF SUB DUP3 GT ISZERO PUSH2 0x39E6 JUMPI PUSH2 0x39E5 PUSH2 0x3BF3 JUMP JUMPDEST JUMPDEST DUP3 DUP3 ADD SWAP1 POP SWAP3 SWAP2 POP POP JUMP JUMPDEST PUSH1 0x0 PUSH2 0x39FC DUP3 PUSH2 0x3AEE JUMP JUMPDEST SWAP2 POP PUSH2 0x3A07 DUP4 PUSH2 0x3AEE JUMP JUMPDEST SWAP3 POP DUP3 PUSH2 0x3A17 JUMPI PUSH2 0x3A16 PUSH2 0x3C22 JUMP JUMPDEST JUMPDEST DUP3 DUP3 DIV SWAP1 POP SWAP3 SWAP2 POP POP JUMP JUMPDEST PUSH1 0x0 PUSH2 0x3A2D DUP3 PUSH2 0x3AEE JUMP JUMPDEST SWAP2 POP PUSH2 0x3A38 DUP4 PUSH2 0x3AEE JUMP JUMPDEST SWAP3 POP DUP2 PUSH32 0xFFFFFFFFFFFFFFFFFFFFFFFFFFFFFFFFFFFFFFFFFFFFFFFFFFFFFFFFFFFFFFFF DIV DUP4 GT DUP3 ISZERO ISZERO AND ISZERO PUSH2 0x3A71 JUMPI PUSH2 0x3A70 PUSH2 0x3BF3 JUMP JUMPDEST JUMPDEST DUP3 DUP3 MUL SWAP1 POP SWAP3 SWAP2 POP POP JUMP JUMPDEST PUSH1 0x0 PUSH2 0x3A87 DUP3 PUSH2 0x3AEE JUMP JUMPDEST SWAP2 POP PUSH2 0x3A92 DUP4 PUSH2 0x3AEE JUMP JUMPDEST SWAP3 POP DUP3 DUP3 LT ISZERO PUSH2 0x3AA5 JUMPI PUSH2 0x3AA4 PUSH2 0x3BF3 JUMP JUMPDEST JUMPDEST DUP3 DUP3 SUB SWAP1 POP SWAP3 SWAP2 POP POP JUMP JUMPDEST PUSH1 0x0 PUSH2 0x3ABB DUP3 PUSH2 0x3ACE JUMP JUMPDEST SWAP1 POP SWAP2 SWAP1 POP JUMP JUMPDEST PUSH1 0x0 DUP2 ISZERO ISZERO SWAP1 POP SWAP2 SWAP1 POP JUMP JUMPDEST PUSH1 0x0 PUSH20 0xFFFFFFFFFFFFFFFFFFFFFFFFFFFFFFFFFFFFFFFF DUP3 AND SWAP1 POP SWAP2 SWAP1 POP JUMP JUMPDEST PUSH1 0x0 DUP2 SWAP1 POP SWAP2 SWAP1 POP JUMP JUMPDEST PUSH1 0x0 PUSH1 0xFF DUP3 AND SWAP1 POP SWAP2 SWAP1 POP JUMP JUMPDEST DUP3 DUP2 DUP4 CALLDATACOPY PUSH1 0x0 DUP4 DUP4 ADD MSTORE POP POP POP JUMP JUMPDEST PUSH1 0x0 JUMPDEST DUP4 DUP2 LT ISZERO PUSH2 0x3B32 JUMPI DUP1 DUP3 ADD MLOAD DUP2 DUP5 ADD MSTORE PUSH1 0x20 DUP2 ADD SWAP1 POP PUSH2 0x3B17 JUMP JUMPDEST DUP4 DUP2 GT ISZERO PUSH2 0x3B41 JUMPI PUSH1 0x0 DUP5 DUP5 ADD MSTORE JUMPDEST POP POP POP POP JUMP JUMPDEST PUSH1 0x0 PUSH1 0x2 DUP3 DIV SWAP1 POP PUSH1 0x1 DUP3 AND DUP1 PUSH2 0x3B5F JUMPI PUSH1 0x7F DUP3 AND SWAP2 POP JUMPDEST PUSH1 0x20 DUP3 LT DUP2 EQ ISZERO PUSH2 0x3B73 JUMPI PUSH2 0x3B72 PUSH2 0x3C51 JUMP JUMPDEST JUMPDEST POP SWAP2 SWAP1 POP JUMP JUMPDEST PUSH2 0x3B82 DUP3 PUSH2 0x3CF2 JUMP JUMPDEST DUP2 ADD DUP2 DUP2 LT PUSH8 0xFFFFFFFFFFFFFFFF DUP3 GT OR ISZERO PUSH2 0x3BA1 JUMPI PUSH2 0x3BA0 PUSH2 0x3CAF JUMP JUMPDEST JUMPDEST DUP1 PUSH1 0x40 MSTORE POP POP POP JUMP JUMPDEST PUSH1 0x0 PUSH2 0x3BB5 DUP3 PUSH2 0x3AEE JUMP JUMPDEST SWAP2 POP PUSH32 0xFFFFFFFFFFFFFFFFFFFFFFFFFFFFFFFFFFFFFFFFFFFFFFFFFFFFFFFFFFFFFFFF DUP3 EQ ISZERO PUSH2 0x3BE8 JUMPI PUSH2 0x3BE7 PUSH2 0x3BF3 JUMP JUMPDEST JUMPDEST PUSH1 0x1 DUP3 ADD SWAP1 POP SWAP2 SWAP1 POP JUMP JUMPDEST PUSH32 0x4E487B7100000000000000000000000000000000000000000000000000000000 PUSH1 0x0 MSTORE PUSH1 0x11 PUSH1 0x4 MSTORE PUSH1 0x24 PUSH1 0x0 REVERT JUMPDEST PUSH32 0x4E487B7100000000000000000000000000000000000000000000000000000000 PUSH1 0x0 MSTORE PUSH1 0x12 PUSH1 0x4 MSTORE PUSH1 0x24 PUSH1 0x0 REVERT JUMPDEST PUSH32 0x4E487B7100000000000000000000000000000000000000000000000000000000 PUSH1 0x0 MSTORE PUSH1 0x22 PUSH1 0x4 MSTORE PUSH1 0x24 PUSH1 0x0 REVERT JUMPDEST PUSH32 0x4E487B7100000000000000000000000000000000000000000000000000000000 PUSH1 0x0 MSTORE PUSH1 0x32 PUSH1 0x4 MSTORE PUSH1 0x24 PUSH1 0x0 REVERT JUMPDEST PUSH32 0x4E487B7100000000000000000000000000000000000000000000000000000000 PUSH1 0x0 MSTORE PUSH1 0x41 PUSH1 0x4 MSTORE PUSH1 0x24 PUSH1 0x0 REVERT JUMPDEST PUSH1 0x0 DUP1 REVERT JUMPDEST PUSH1 0x0 DUP1 REVERT JUMPDEST PUSH1 0x0 DUP1 REVERT JUMPDEST PUSH1 0x0 DUP1 REVERT JUMPDEST PUSH1 0x0 PUSH1 0x1F NOT PUSH1 0x1F DUP4 ADD AND SWAP1 POP SWAP2 SWAP1 POP JUMP JUMPDEST PUSH32 0x4F6E6C79206F776E657200000000000000000000000000000000000000000000 PUSH1 0x0 DUP3 ADD MSTORE POP JUMP JUMPDEST PUSH32 0x596F7520617265206E6F74207061727469636970616E742E0000000000000000 PUSH1 0x0 DUP3 ADD MSTORE POP JUMP JUMPDEST PUSH32 0x5465616D2042206E616D652073686F756C64206E6F7420626520656D7074792E PUSH1 0x0 DUP3 ADD MSTORE POP JUMP JUMPDEST PUSH32 0x5465616D2041206E616D652073686F756C64206E6F7420626520656D7074792E PUSH1 0x0 DUP3 ADD MSTORE POP JUMP JUMPDEST PUSH32 0x54686973206D61746368206E6F7420637265617465207965742E000000000000 PUSH1 0x0 DUP3 ADD MSTORE POP JUMP JUMPDEST PUSH32 0x4E6F7468696E6720746F20636C61696D2E000000000000000000000000000000 PUSH1 0x0 DUP3 ADD MSTORE POP JUMP JUMPDEST PUSH32 0x54686973206D617463682069732066696E69736865642E000000000000000000 PUSH1 0x0 DUP3 ADD MSTORE POP JUMP JUMPDEST PUSH32 0x54686973206D61746368206973206E6F742066696E69736865642E0000000000 PUSH1 0x0 DUP3 ADD MSTORE POP JUMP JUMPDEST PUSH32 0x2069732077696E6E65722E000000000000000000000000000000000000000000 PUSH1 0x0 DUP3 ADD MSTORE POP JUMP JUMPDEST PUSH32 0x416D6F756E74206D75737420677261746572207468616E207A65726F2E000000 PUSH1 0x0 DUP3 ADD MSTORE POP JUMP JUMPDEST PUSH32 0x54686973206D61746368206973206E6F74206F70656E2E000000000000000000 PUSH1 0x0 DUP3 ADD MSTORE POP JUMP JUMPDEST PUSH32 0x54686973206D61746368206E6F7420636C6F7365642079657400000000000000 PUSH1 0x0 DUP3 ADD MSTORE POP JUMP JUMPDEST PUSH2 0x3EF8 DUP2 PUSH2 0x3AC2 JUMP JUMPDEST DUP2 EQ PUSH2 0x3F03 JUMPI PUSH1 0x0 DUP1 REVERT JUMPDEST POP JUMP JUMPDEST PUSH2 0x3F0F DUP2 PUSH2 0x3AEE JUMP JUMPDEST DUP2 EQ PUSH2 0x3F1A JUMPI PUSH1 0x0 DUP1 REVERT JUMPDEST POP JUMP JUMPDEST PUSH2 0x3F26 DUP2 PUSH2 0x3AF8 JUMP JUMPDEST DUP2 EQ PUSH2 0x3F31 JUMPI PUSH1 0x0 DUP1 REVERT JUMPDEST POP JUMP INVALID LOG2 PUSH5 0x6970667358 0x22 SLT KECCAK256 SWAP15 0xD5 DUP4 0xDE 0xB2 MSTORE8 STOP 0x4A 0x4B 0xB6 MSIZE SWAP15 SWAP10 0xAC RETURN DIFFICULTY PUSH24 0x1330385CFD7645625E7032A210B87C64736F6C6343000807 STOP CALLER "
		},
		"gasEstimates": {
			"creation": {
				"codeDepositCost": "3246800",
				"executionCost": "infinite",
				"totalCost": "infinite"
			},
			"external": {
				"claimTeamA(uint256)": "infinite",
				"claimTeamB(uint256)": "infinite",
				"closeMatch(uint256)": "30345",
				"createMatch(string,string)": "infinite",
				"estimateRewardTeamA(uint256)": "infinite",
				"estimateRewardTeamB(uint256)": "infinite",
				"finishMatch(uint256,uint8,uint8)": "infinite",
				"gamblingTeamA(uint256)": "infinite",
				"gamblingTeamB(uint256)": "infinite",
				"getOpenMatch()": "infinite",
				"getTotalTeamAGambling(uint256)": "infinite",
				"getTotalTeamBGambling(uint256)": "infinite",
				"getYourBalanceTeamA(uint256)": "infinite",
				"getYourBalanceTeamB(uint256)": "infinite",
				"postponeMatch(uint256)": "infinite",
				"transferFeeToOwner()": "infinite"
			},
			"internal": {
				"getMatchStatus(uint256)": "infinite"
			}
		},
		"methodIdentifiers": {
			"claimTeamA(uint256)": "69344c3f",
			"claimTeamB(uint256)": "b1623c06",
			"closeMatch(uint256)": "00a7079b",
			"createMatch(string,string)": "57447733",
			"estimateRewardTeamA(uint256)": "7b4802f6",
			"estimateRewardTeamB(uint256)": "224b1b3c",
			"finishMatch(uint256,uint8,uint8)": "284ef410",
			"gamblingTeamA(uint256)": "d2ca8a39",
			"gamblingTeamB(uint256)": "9fc34860",
			"getOpenMatch()": "ab3c48f1",
			"getTotalTeamAGambling(uint256)": "f4de8584",
			"getTotalTeamBGambling(uint256)": "54fd4118",
			"getYourBalanceTeamA(uint256)": "86e525e1",
			"getYourBalanceTeamB(uint256)": "12a518ee",
			"postponeMatch(uint256)": "dcfb57eb",
			"transferFeeToOwner()": "3d536704"
		}
	},
	"abi": [
		{
			"inputs": [
				{
					"internalType": "contract IERC20",
					"name": "_myCoin",
					"type": "address"
				}
			],
			"stateMutability": "nonpayable",
			"type": "constructor"
		},
		{
			"anonymous": false,
			"inputs": [
				{
					"indexed": true,
					"internalType": "uint256",
					"name": "_matchNum",
					"type": "uint256"
				},
				{
					"indexed": true,
					"internalType": "address",
					"name": "_claimer",
					"type": "address"
				},
				{
					"indexed": true,
					"internalType": "string",
					"name": "_teamName",
					"type": "string"
				},
				{
					"indexed": false,
					"internalType": "uint256",
					"name": "_amount",
					"type": "uint256"
				},
				{
					"indexed": false,
					"internalType": "string",
					"name": "matchStatus",
					"type": "string"
				}
			],
			"name": "Claim",
			"type": "event"
		},
		{
			"anonymous": false,
			"inputs": [
				{
					"indexed": true,
					"internalType": "uint256",
					"name": "_matchNum",
					"type": "uint256"
				}
			],
			"name": "CloseMatch",
			"type": "event"
		},
		{
			"anonymous": false,
			"inputs": [
				{
					"indexed": true,
					"internalType": "uint256",
					"name": "_matchNum",
					"type": "uint256"
				}
			],
			"name": "FinishMatch",
			"type": "event"
		},
		{
			"anonymous": false,
			"inputs": [
				{
					"indexed": true,
					"internalType": "uint256",
					"name": "_matchNum",
					"type": "uint256"
				},
				{
					"indexed": true,
					"internalType": "string",
					"name": "_teamName",
					"type": "string"
				}
			],
			"name": "Gambling",
			"type": "event"
		},
		{
			"anonymous": false,
			"inputs": [
				{
					"indexed": true,
					"internalType": "string",
					"name": "_teamAName",
					"type": "string"
				},
				{
					"indexed": true,
					"internalType": "string",
					"name": "_teamBName",
					"type": "string"
				},
				{
					"indexed": true,
					"internalType": "uint256",
					"name": "_matchNum",
					"type": "uint256"
				}
			],
			"name": "MatchCreated",
			"type": "event"
		},
		{
			"anonymous": false,
			"inputs": [
				{
					"indexed": true,
					"internalType": "uint256",
					"name": "_matchNum",
					"type": "uint256"
				}
			],
			"name": "Postpone",
			"type": "event"
		},
		{
			"inputs": [
				{
					"internalType": "uint256",
					"name": "_matchNum",
					"type": "uint256"
				}
			],
			"name": "claimTeamA",
			"outputs": [],
			"stateMutability": "nonpayable",
			"type": "function"
		},
		{
			"inputs": [
				{
					"internalType": "uint256",
					"name": "_matchNum",
					"type": "uint256"
				}
			],
			"name": "claimTeamB",
			"outputs": [],
			"stateMutability": "nonpayable",
			"type": "function"
		},
		{
			"inputs": [
				{
					"internalType": "uint256",
					"name": "_matchNum",
					"type": "uint256"
				}
			],
			"name": "closeMatch",
			"outputs": [],
			"stateMutability": "nonpayable",
			"type": "function"
		},
		{
			"inputs": [
				{
					"internalType": "string",
					"name": "_teamAName",
					"type": "string"
				},
				{
					"internalType": "string",
					"name": "_teamBName",
					"type": "string"
				}
			],
			"name": "createMatch",
			"outputs": [],
			"stateMutability": "nonpayable",
			"type": "function"
		},
		{
			"inputs": [
				{
					"internalType": "uint256",
					"name": "_matchNum",
					"type": "uint256"
				}
			],
			"name": "estimateRewardTeamA",
			"outputs": [
				{
					"internalType": "uint256",
					"name": "",
					"type": "uint256"
				}
			],
			"stateMutability": "view",
			"type": "function"
		},
		{
			"inputs": [
				{
					"internalType": "uint256",
					"name": "_matchNum",
					"type": "uint256"
				}
			],
			"name": "estimateRewardTeamB",
			"outputs": [
				{
					"internalType": "uint256",
					"name": "",
					"type": "uint256"
				}
			],
			"stateMutability": "view",
			"type": "function"
		},
		{
			"inputs": [
				{
					"internalType": "uint256",
					"name": "_matchNum",
					"type": "uint256"
				},
				{
					"internalType": "uint8",
					"name": "_teamAScore",
					"type": "uint8"
				},
				{
					"internalType": "uint8",
					"name": "_teamBScore",
					"type": "uint8"
				}
			],
			"name": "finishMatch",
			"outputs": [],
			"stateMutability": "nonpayable",
			"type": "function"
		},
		{
			"inputs": [
				{
					"internalType": "uint256",
					"name": "_matchNum",
					"type": "uint256"
				}
			],
			"name": "gamblingTeamA",
			"outputs": [],
			"stateMutability": "payable",
			"type": "function"
		},
		{
			"inputs": [
				{
					"internalType": "uint256",
					"name": "_matchNum",
					"type": "uint256"
				}
			],
			"name": "gamblingTeamB",
			"outputs": [],
			"stateMutability": "payable",
			"type": "function"
		},
		{
			"inputs": [],
			"name": "getOpenMatch",
			"outputs": [
				{
					"internalType": "string[]",
					"name": "teamAName",
					"type": "string[]"
				},
				{
					"internalType": "string[]",
					"name": "teamBName",
					"type": "string[]"
				},
				{
					"internalType": "uint256[]",
					"name": "matchNum",
					"type": "uint256[]"
				}
			],
			"stateMutability": "view",
			"type": "function"
		},
		{
			"inputs": [
				{
					"internalType": "uint256",
					"name": "_matchNum",
					"type": "uint256"
				}
			],
			"name": "getTotalTeamAGambling",
			"outputs": [
				{
					"internalType": "uint256",
					"name": "",
					"type": "uint256"
				}
			],
			"stateMutability": "view",
			"type": "function"
		},
		{
			"inputs": [
				{
					"internalType": "uint256",
					"name": "_matchNum",
					"type": "uint256"
				}
			],
			"name": "getTotalTeamBGambling",
			"outputs": [
				{
					"internalType": "uint256",
					"name": "",
					"type": "uint256"
				}
			],
			"stateMutability": "view",
			"type": "function"
		},
		{
			"inputs": [
				{
					"internalType": "uint256",
					"name": "_matchNum",
					"type": "uint256"
				}
			],
			"name": "getYourBalanceTeamA",
			"outputs": [
				{
					"internalType": "uint256",
					"name": "",
					"type": "uint256"
				}
			],
			"stateMutability": "view",
			"type": "function"
		},
		{
			"inputs": [
				{
					"internalType": "uint256",
					"name": "_matchNum",
					"type": "uint256"
				}
			],
			"name": "getYourBalanceTeamB",
			"outputs": [
				{
					"internalType": "uint256",
					"name": "",
					"type": "uint256"
				}
			],
			"stateMutability": "view",
			"type": "function"
		},
		{
			"inputs": [
				{
					"internalType": "uint256",
					"name": "_matchNum",
					"type": "uint256"
				}
			],
			"name": "postponeMatch",
			"outputs": [],
			"stateMutability": "nonpayable",
			"type": "function"
		},
		{
			"inputs": [],
			"name": "transferFeeToOwner",
			"outputs": [],
			"stateMutability": "nonpayable",
			"type": "function"
		}
	]
}